{
  "_format": "hh-sol-artifact-1",
  "contractName": "Factory",
  "sourceName": "contracts/Factory.sol",
  "abi": [
    {
      "inputs": [
        {
          "internalType": "uint256",
          "name": "",
          "type": "uint256"
        }
      ],
      "name": "contracts",
      "outputs": [
        {
          "internalType": "address",
          "name": "governorContract",
          "type": "address"
        },
        {
          "internalType": "address",
          "name": "timelockContract",
          "type": "address"
        },
        {
          "internalType": "address",
          "name": "tokenContract",
          "type": "address"
        },
        {
          "internalType": "address",
          "name": "owner",
          "type": "address"
        }
      ],
      "stateMutability": "view",
      "type": "function"
    },
    {
      "inputs": [
        {
          "internalType": "uint256",
          "name": "_minDelay",
          "type": "uint256"
        },
        {
          "internalType": "uint256",
          "name": "_minAmount",
          "type": "uint256"
        },
        {
          "internalType": "string",
          "name": "_daoName",
          "type": "string"
        },
        {
          "internalType": "uint256",
          "name": "_votingPeriod",
          "type": "uint256"
        },
        {
          "internalType": "uint8",
          "name": "_quorumFraction",
          "type": "uint8"
        },
        {
          "internalType": "string",
          "name": "_tokenName",
          "type": "string"
        },
        {
          "internalType": "string",
          "name": "_tokenSymbol",
          "type": "string"
        }
      ],
      "name": "createDAO",
      "outputs": [],
      "stateMutability": "nonpayable",
      "type": "function"
    },
    {
      "inputs": [
        {
          "internalType": "uint256",
          "name": "",
          "type": "uint256"
        }
      ],
      "name": "list_of_governors",
      "outputs": [
        {
          "internalType": "contract GroupGovernor",
          "name": "",
          "type": "address"
        }
      ],
      "stateMutability": "view",
      "type": "function"
    },
    {
      "inputs": [
        {
          "internalType": "uint256",
          "name": "",
          "type": "uint256"
        }
      ],
      "name": "list_of_timelocks",
      "outputs": [
        {
          "internalType": "contract MyTimelockController",
          "name": "",
          "type": "address"
        }
      ],
      "stateMutability": "view",
      "type": "function"
    },
    {
      "inputs": [
        {
          "internalType": "uint256",
          "name": "",
          "type": "uint256"
        }
      ],
      "name": "list_of_tokens",
      "outputs": [
        {
          "internalType": "contract TokenContract",
          "name": "",
          "type": "address"
        }
      ],
      "stateMutability": "view",
      "type": "function"
    }
  ],
  "bytecode": "0x608060405234801561001057600080fd5b5061987c806100206000396000f3fe60806040523480156200001157600080fd5b50600436106200005e5760003560e01c80632c31b1701462000063578063474da79a14620000975780635559fe2a14620000e25780638d24d8d414620000f9578063cda1e6fd1462000110575b600080fd5b6200007a620000743660046200064d565b62000129565b6040516001600160a01b0390911681526020015b60405180910390f35b620000ae620000a83660046200064d565b62000154565b604080516001600160a01b03958616815293851660208501529184169183019190915290911660608201526080016200008e565b6200007a620000f33660046200064d565b6200019f565b6200007a6200010a3660046200064d565b620001b0565b620001276200012136600462000711565b620001c1565b005b600481815481106200013a57600080fd5b6000918252602090912001546001600160a01b0316905081565b600781815481106200016557600080fd5b600091825260209091206004909102018054600182015460028301546003909301546001600160a01b039283169450908216928216911684565b600381815481106200013a57600080fd5b600581815481106200013a57600080fd5b600680546001600160a01b03191673cc42724c6683b7e57334c4e856f4c9965ed682bd179055604080516001808252818301909252600091602080830190803683370190505090506200021433620005a7565b816000815181106200022a576200022a620007db565b6001600160a01b0392909216602092830291909101909101526040805160018082528183019092526000918160200160208202803683370190505090506000816000815181106200027f576200027f620007db565b60200260200101906001600160a01b031690816001600160a01b031681525050888282338b604051620002b29062000623565b620002c295949392919062000837565b604051809103906000f080158015620002df573d6000803e3d6000fd5b50600180546001600160a01b03929092166001600160a01b03199283168117825560048054928301815560009081527f8a35acfbc15ff81a39ae7d344fd709f28e8600b4aa8c65c6b64bfe7fe36bd19b9092018054909316179091556200034633620005a7565b600180546006546040519394506001600160a01b03918216938c938693869316918d908d90620003769062000631565b620003889796959493929190620008cc565b604051809103906000f080158015620003a5573d6000803e3d6000fd5b50600080546001600160a01b039283166001600160a01b031991821681178355600380546001810182559084527fc2575a0e9e593c00f959f8c92f12db2869c3395a3b0502d05e2516446f71f85b0180549092161790555460405191169081908890889062000414906200063f565b620004229392919062000923565b604051809103906000f0801580156200043f573d6000803e3d6000fd5b50600280546001600160a01b03199081166001600160a01b0393841690811783556005805460018181019092557f036b6384b5eca791c62761152d0c79bb0604c104a5fb6f4eb0703f3154bb3db00180548416909217909155915460408051608081018252958516865295841660208601908152908416958501958652336060860190815260078054948501815560005294517fa66cc928b5edb82af9bd49922954155ab7b0942694bea4ce44661d9a8736c688600490940293840180548416918616919091179055517fa66cc928b5edb82af9bd49922954155ab7b0942694bea4ce44661d9a8736c68983018054831691851691909117905593517fa66cc928b5edb82af9bd49922954155ab7b0942694bea4ce44661d9a8736c68a82018054861691841691909117905591517fa66cc928b5edb82af9bd49922954155ab7b0942694bea4ce44661d9a8736c68b9092018054909316911617905550505050505050505050565b600080620005b583620005ee565b905060008382604051602001620005ce92919062000967565b60408051601f198184030181529190528051602090910120949350505050565b600081436040516020016200060592919062000967565b60408051601f19818403018152919052805160209091012092915050565b61224b806200098583390190565b6142ce8062002bd083390190565b6129a98062006e9e83390190565b6000602082840312156200066057600080fd5b5035919050565b634e487b7160e01b600052604160045260246000fd5b600082601f8301126200068f57600080fd5b81356001600160401b0380821115620006ac57620006ac62000667565b604051601f8301601f19908116603f01168101908282118183101715620006d757620006d762000667565b81604052838152866020858801011115620006f157600080fd5b836020870160208301376000602085830101528094505050505092915050565b600080600080600080600060e0888a0312156200072d57600080fd5b873596506020880135955060408801356001600160401b03808211156200075357600080fd5b620007618b838c016200067d565b965060608a0135955060808a0135915060ff821682146200078157600080fd5b90935060a089013590808211156200079857600080fd5b620007a68b838c016200067d565b935060c08a0135915080821115620007bd57600080fd5b50620007cc8a828b016200067d565b91505092959891949750929550565b634e487b7160e01b600052603260045260246000fd5b600081518084526020808501945080840160005b838110156200082c5781516001600160a01b03168752958201959082019060010162000805565b509495945050505050565b85815260a0602082015260006200085260a0830187620007f1565b8281036040840152620008668187620007f1565b6001600160a01b039590951660608401525050608001529392505050565b6000815180845260005b81811015620008ac576020818501810151868301820152016200088e565b506000602082860101526020601f19601f83011685010191505092915050565b60e081526000620008e160e083018a62000884565b6001600160a01b039889166020840152968816604083015250939095166060840152608083019190915260a082015260ff90921660c090920191909152919050565b6001600160a01b0384168152606060208201819052600090620009499083018562000884565b82810360408401526200095d818562000884565b9695505050505050565b60609290921b6001600160601b031916825260148201526034019056fe60806040523480156200001157600080fd5b506040516200224b3803806200224b833981016040819052620000349162000417565b8484848462000053600080516020620021cb833981519152806200023c565b6200007d600080516020620021eb833981519152600080516020620021cb8339815191526200023c565b620000a76000805160206200220b833981519152600080516020620021cb8339815191526200023c565b620000d16000805160206200222b833981519152600080516020620021cb8339815191526200023c565b620000ec600080516020620021cb8339815191523062000287565b6001600160a01b03811615620001175762000117600080516020620021cb8339815191528262000287565b60005b83518110156200019d5762000161600080516020620021eb8339815191528583815181106200014d576200014d620004a8565b60200260200101516200028760201b60201c565b6200018a6000805160206200222b8339815191528583815181106200014d576200014d620004a8565b6200019581620004be565b90506200011a565b5060005b8251811015620001e757620001d46000805160206200220b8339815191528483815181106200014d576200014d620004a8565b620001df81620004be565b9050620001a1565b5060028490556040805160008152602081018690527f11c24f4ead16507c69ac467fbd5e4eed5fb5c699626d2cc6d66421df253886d5910160405180910390a150505060039190915550620004e69350505050565b600082815260208190526040808220600101805490849055905190918391839186917fbd79b86ffe0ab8e8776151514217cd7cacd52c909f66475c3af44e129f0b00ff9190a4505050565b62000293828262000297565b5050565b6000828152602081815260408083206001600160a01b038516845290915290205460ff1662000293576000828152602081815260408083206001600160a01b03851684529091529020805460ff19166001179055620002f33390565b6001600160a01b0316816001600160a01b0316837f2f8788117e7eff1d82e926ec794901d17c78024a50270940304540a733656f0d60405160405180910390a45050565b634e487b7160e01b600052604160045260246000fd5b80516001600160a01b03811681146200036557600080fd5b919050565b600082601f8301126200037c57600080fd5b815160206001600160401b03808311156200039b576200039b62000337565b8260051b604051601f19603f83011681018181108482111715620003c357620003c362000337565b604052938452858101830193838101925087851115620003e257600080fd5b83870191505b848210156200040c57620003fc826200034d565b83529183019190830190620003e8565b979650505050505050565b600080600080600060a086880312156200043057600080fd5b855160208701519095506001600160401b03808211156200045057600080fd5b6200045e89838a016200036a565b955060408801519150808211156200047557600080fd5b5062000484888289016200036a565b93505062000495606087016200034d565b9150608086015190509295509295909350565b634e487b7160e01b600052603260045260246000fd5b600060018201620004df57634e487b7160e01b600052601160045260246000fd5b5060010190565b611cd580620004f66000396000f3fe60806040526004361061014b5760003560e01c806301d5062a1461015757806301ffc9a71461017957806307bd0265146101ae5780630d3cf6fc146101de578063134008d31461021257806313bc9f2014610225578063150b7a0214610245578063248a9ca3146102895780632ab0f529146102a95780632f2ff15d146102c957806331d50750146102e957806336568abe14610309578063584b153e1461032957806364d62353146103495780638065657f146103695780638f2a0bb0146103895780638f61f4f5146103a957806391d14854146103cb578063a217fddf146103eb578063b08e51c014610400578063b1c5f42714610422578063bc197c8114610442578063c4d252f51461046e578063d45c44351461048e578063d547741f146104ae578063e38335e5146104ce578063f23a6e61146104e1578063f27a0c921461050d57600080fd5b3661015257005b600080fd5b34801561016357600080fd5b50610177610172366004611258565b610522565b005b34801561018557600080fd5b506101996101943660046112cc565b610593565b60405190151581526020015b60405180910390f35b3480156101ba57600080fd5b506101d0600080516020611c4083398151915281565b6040519081526020016101a5565b3480156101ea57600080fd5b506101d07f5f58e3a2316349923ce3780f8d587db2d72378aed66a8261c916544fa6846ca581565b6101776102203660046112f6565b6105be565b34801561023157600080fd5b50610199610240366004611361565b61064f565b34801561025157600080fd5b5061027061026036600461142f565b630a85bd0160e11b949350505050565b6040516001600160e01b031990911681526020016101a5565b34801561029557600080fd5b506101d06102a4366004611361565b610674565b3480156102b557600080fd5b506101996102c4366004611361565b610689565b3480156102d557600080fd5b506101776102e4366004611496565b61069d565b3480156102f557600080fd5b50610199610304366004611361565b6106be565b34801561031557600080fd5b50610177610324366004611496565b6106d1565b34801561033557600080fd5b50610199610344366004611361565b610754565b34801561035557600080fd5b50610177610364366004611361565b610761565b34801561037557600080fd5b506101d06103843660046112f6565b610805565b34801561039557600080fd5b506101776103a4366004611506565b610844565b3480156103b557600080fd5b506101d0600080516020611c2083398151915281565b3480156103d757600080fd5b506101996103e6366004611496565b610972565b3480156103f757600080fd5b506101d0600081565b34801561040c57600080fd5b506101d0600080516020611c8083398151915281565b34801561042e57600080fd5b506101d061043d3660046115b7565b61099b565b34801561044e57600080fd5b5061027061045d3660046116de565b63bc197c8160e01b95945050505050565b34801561047a57600080fd5b50610177610489366004611361565b6109e0565b34801561049a57600080fd5b506101d06104a9366004611361565b610aa3565b3480156104ba57600080fd5b506101776104c9366004611496565b610ab5565b6101776104dc3660046115b7565b610ad1565b3480156104ed57600080fd5b506102706104fc366004611787565b63f23a6e6160e01b95945050505050565b34801561051957600080fd5b506002546101d0565b600080516020611c2083398151915261053a81610c37565b600061054a898989898989610805565b90506105568184610c44565b600081600080516020611c608339815191528b8b8b8b8b8a60405161058096959493929190611814565b60405180910390a3505050505050505050565b60006001600160e01b03198216630271189760e51b14806105b857506105b882610d33565b92915050565b600080516020611c408339815191526105d8816000610972565b6105e6576105e68133610d68565b60006105f6888888888888610805565b90506106028185610dc1565b61060e88888888610e52565b600081600080516020611c008339815191528a8a8a8a6040516106349493929190611851565b60405180910390a361064581610f25565b5050505050505050565b60008061065b83610aa3565b905060018111801561066d5750428111155b9392505050565b60009081526020819052604090206001015490565b6000600161069683610aa3565b1492915050565b6106a682610674565b6106af81610c37565b6106b98383610f5e565b505050565b6000806106ca83610aa3565b1192915050565b6001600160a01b03811633146107465760405162461bcd60e51b815260206004820152602f60248201527f416363657373436f6e74726f6c3a2063616e206f6e6c792072656e6f756e636560448201526e103937b632b9903337b91039b2b63360891b60648201526084015b60405180910390fd5b6107508282610fe2565b5050565b600060016106ca83610aa3565b3330146107c45760405162461bcd60e51b815260206004820152602b60248201527f54696d656c6f636b436f6e74726f6c6c65723a2063616c6c6572206d7573742060448201526a62652074696d656c6f636b60a81b606482015260840161073d565b60025460408051918252602082018390527f11c24f4ead16507c69ac467fbd5e4eed5fb5c699626d2cc6d66421df253886d5910160405180910390a1600255565b600086868686868660405160200161082296959493929190611814565b6040516020818303038152906040528051906020012090509695505050505050565b600080516020611c2083398151915261085c81610c37565b88871461087b5760405162461bcd60e51b815260040161073d90611883565b88851461089a5760405162461bcd60e51b815260040161073d90611883565b60006108ac8b8b8b8b8b8b8b8b61099b565b90506108b88184610c44565b60005b8a811015610964578082600080516020611c608339815191528e8e858181106108e6576108e66118c6565b90506020020160208101906108fb91906118dc565b8d8d8681811061090d5761090d6118c6565b905060200201358c8c87818110610926576109266118c6565b905060200281019061093891906118f7565b8c8b60405161094c96959493929190611814565b60405180910390a361095d81611953565b90506108bb565b505050505050505050505050565b6000918252602082815260408084206001600160a01b0393909316845291905290205460ff1690565b600088888888888888886040516020016109bc9897969594939291906119fd565b60405160208183030381529060405280519060200120905098975050505050505050565b600080516020611c808339815191526109f881610c37565b610a0182610754565b610a675760405162461bcd60e51b815260206004820152603160248201527f54696d656c6f636b436f6e74726f6c6c65723a206f7065726174696f6e2063616044820152701b9b9bdd0818994818d85b98d95b1b1959607a1b606482015260840161073d565b6000828152600160205260408082208290555183917fbaa1eb22f2a492ba1a5fea61b8df4d27c6c8b5f3971e63bb58fa14ff72eedb7091a25050565b60009081526001602052604090205490565b610abe82610674565b610ac781610c37565b6106b98383610fe2565b600080516020611c40833981519152610aeb816000610972565b610af957610af98133610d68565b878614610b185760405162461bcd60e51b815260040161073d90611883565b878414610b375760405162461bcd60e51b815260040161073d90611883565b6000610b498a8a8a8a8a8a8a8a61099b565b9050610b558185610dc1565b60005b89811015610c215760008b8b83818110610b7457610b746118c6565b9050602002016020810190610b8991906118dc565b905060008a8a84818110610b9f57610b9f6118c6565b9050602002013590503660008a8a86818110610bbd57610bbd6118c6565b9050602002810190610bcf91906118f7565b91509150610bdf84848484610e52565b8486600080516020611c0083398151915286868686604051610c049493929190611851565b60405180910390a35050505080610c1a90611953565b9050610b58565b50610c2b81610f25565b50505050505050505050565b610c418133610d68565b50565b610c4d826106be565b15610cb25760405162461bcd60e51b815260206004820152602f60248201527f54696d656c6f636b436f6e74726f6c6c65723a206f7065726174696f6e20616c60448201526e1c9958591e481cd8da19591d5b1959608a1b606482015260840161073d565b600254811015610d135760405162461bcd60e51b815260206004820152602660248201527f54696d656c6f636b436f6e74726f6c6c65723a20696e73756666696369656e746044820152652064656c617960d01b606482015260840161073d565b610d1d8142611a9e565b6000928352600160205260409092209190915550565b60006001600160e01b03198216637965db0b60e01b14806105b857506301ffc9a760e01b6001600160e01b03198316146105b8565b610d728282610972565b61075057610d7f81611047565b610d8a836020611059565b604051602001610d9b929190611ad5565b60408051601f198184030181529082905262461bcd60e51b825261073d91600401611b44565b610dca8261064f565b610de65760405162461bcd60e51b815260040161073d90611b77565b801580610df75750610df781610689565b6107505760405162461bcd60e51b815260206004820152602660248201527f54696d656c6f636b436f6e74726f6c6c65723a206d697373696e6720646570656044820152656e64656e637960d01b606482015260840161073d565b6000846001600160a01b0316848484604051610e6f929190611bc1565b60006040518083038185875af1925050503d8060008114610eac576040519150601f19603f3d011682016040523d82523d6000602084013e610eb1565b606091505b5050905080610f1e5760405162461bcd60e51b815260206004820152603360248201527f54696d656c6f636b436f6e74726f6c6c65723a20756e6465726c79696e6720746044820152721c985b9cd858dd1a5bdb881c995d995c9d1959606a1b606482015260840161073d565b5050505050565b610f2e8161064f565b610f4a5760405162461bcd60e51b815260040161073d90611b77565b600090815260016020819052604090912055565b610f688282610972565b610750576000828152602081815260408083206001600160a01b03851684529091529020805460ff19166001179055610f9e3390565b6001600160a01b0316816001600160a01b0316837f2f8788117e7eff1d82e926ec794901d17c78024a50270940304540a733656f0d60405160405180910390a45050565b610fec8282610972565b15610750576000828152602081815260408083206001600160a01b0385168085529252808320805460ff1916905551339285917ff6391f5c32d9c69d2a47ea670b442974b53935d1edc7fd64eb21e047a839171b9190a45050565b60606105b86001600160a01b03831660145b60606000611068836002611bd1565b611073906002611a9e565b6001600160401b0381111561108a5761108a61137a565b6040519080825280601f01601f1916602001820160405280156110b4576020820181803683370190505b509050600360fc1b816000815181106110cf576110cf6118c6565b60200101906001600160f81b031916908160001a905350600f60fb1b816001815181106110fe576110fe6118c6565b60200101906001600160f81b031916908160001a9053506000611122846002611bd1565b61112d906001611a9e565b90505b60018111156111a5576f181899199a1a9b1b9c1cb0b131b232b360811b85600f1660108110611161576111616118c6565b1a60f81b828281518110611177576111776118c6565b60200101906001600160f81b031916908160001a90535060049490941c9361119e81611be8565b9050611130565b50831561066d5760405162461bcd60e51b815260206004820181905260248201527f537472696e67733a20686578206c656e67746820696e73756666696369656e74604482015260640161073d565b80356001600160a01b038116811461120b57600080fd5b919050565b60008083601f84011261122257600080fd5b5081356001600160401b0381111561123957600080fd5b60208301915083602082850101111561125157600080fd5b9250929050565b600080600080600080600060c0888a03121561127357600080fd5b61127c886111f4565b96506020880135955060408801356001600160401b0381111561129e57600080fd5b6112aa8a828b01611210565b989b979a50986060810135976080820135975060a09091013595509350505050565b6000602082840312156112de57600080fd5b81356001600160e01b03198116811461066d57600080fd5b60008060008060008060a0878903121561130f57600080fd5b611318876111f4565b95506020870135945060408701356001600160401b0381111561133a57600080fd5b61134689828a01611210565b979a9699509760608101359660809091013595509350505050565b60006020828403121561137357600080fd5b5035919050565b634e487b7160e01b600052604160045260246000fd5b604051601f8201601f191681016001600160401b03811182821017156113b8576113b861137a565b604052919050565b600082601f8301126113d157600080fd5b81356001600160401b038111156113ea576113ea61137a565b6113fd601f8201601f1916602001611390565b81815284602083860101111561141257600080fd5b816020850160208301376000918101602001919091529392505050565b6000806000806080858703121561144557600080fd5b61144e856111f4565b935061145c602086016111f4565b92506040850135915060608501356001600160401b0381111561147e57600080fd5b61148a878288016113c0565b91505092959194509250565b600080604083850312156114a957600080fd5b823591506114b9602084016111f4565b90509250929050565b60008083601f8401126114d457600080fd5b5081356001600160401b038111156114eb57600080fd5b6020830191508360208260051b850101111561125157600080fd5b600080600080600080600080600060c08a8c03121561152457600080fd5b89356001600160401b038082111561153b57600080fd5b6115478d838e016114c2565b909b50995060208c013591508082111561156057600080fd5b61156c8d838e016114c2565b909950975060408c013591508082111561158557600080fd5b506115928c828d016114c2565b9a9d999c50979a969997986060880135976080810135975060a0013595509350505050565b60008060008060008060008060a0898b0312156115d357600080fd5b88356001600160401b03808211156115ea57600080fd5b6115f68c838d016114c2565b909a50985060208b013591508082111561160f57600080fd5b61161b8c838d016114c2565b909850965060408b013591508082111561163457600080fd5b506116418b828c016114c2565b999c989b509699959896976060870135966080013595509350505050565b600082601f83011261167057600080fd5b813560206001600160401b0382111561168b5761168b61137a565b8160051b61169a828201611390565b92835284810182019282810190878511156116b457600080fd5b83870192505b848310156116d3578235825291830191908301906116ba565b979650505050505050565b600080600080600060a086880312156116f657600080fd5b6116ff866111f4565b945061170d602087016111f4565b935060408601356001600160401b038082111561172957600080fd5b61173589838a0161165f565b9450606088013591508082111561174b57600080fd5b61175789838a0161165f565b9350608088013591508082111561176d57600080fd5b5061177a888289016113c0565b9150509295509295909350565b600080600080600060a0868803121561179f57600080fd5b6117a8866111f4565b94506117b6602087016111f4565b9350604086013592506060860135915060808601356001600160401b038111156117df57600080fd5b61177a888289016113c0565b81835281816020850137506000828201602090810191909152601f909101601f19169091010190565b60018060a01b038716815285602082015260a06040820152600061183c60a0830186886117eb565b60608301949094525060800152949350505050565b60018060a01b03851681528360208201526060604082015260006118796060830184866117eb565b9695505050505050565b60208082526023908201527f54696d656c6f636b436f6e74726f6c6c65723a206c656e677468206d69736d616040820152620e8c6d60eb1b606082015260800190565b634e487b7160e01b600052603260045260246000fd5b6000602082840312156118ee57600080fd5b61066d826111f4565b6000808335601e1984360301811261190e57600080fd5b8301803591506001600160401b0382111561192857600080fd5b60200191503681900382131561125157600080fd5b634e487b7160e01b600052601160045260246000fd5b6000600182016119655761196561193d565b5060010190565b81835260006020808501808196508560051b810191508460005b878110156119f05782840389528135601e198836030181126119a757600080fd5b870185810190356001600160401b038111156119c257600080fd5b8036038213156119d157600080fd5b6119dc8682846117eb565b9a87019a9550505090840190600101611986565b5091979650505050505050565b60a0808252810188905260008960c08301825b8b811015611a3e576001600160a01b03611a29846111f4565b16825260209283019290910190600101611a10565b5083810360208501528881526001600160fb1b03891115611a5e57600080fd5b8860051b9150818a60208301370182810360209081016040850152611a86908201878961196c565b60608401959095525050608001529695505050505050565b808201808211156105b8576105b861193d565b60005b83811015611acc578181015183820152602001611ab4565b50506000910152565b76020b1b1b2b9b9a1b7b73a3937b61d1030b1b1b7bab73a1604d1b815260008351611b07816017850160208801611ab1565b7001034b99036b4b9b9b4b733903937b6329607d1b6017918401918201528351611b38816028840160208801611ab1565b01602801949350505050565b6020815260008251806020840152611b63816040850160208701611ab1565b601f01601f19169190910160400192915050565b6020808252602a908201527f54696d656c6f636b436f6e74726f6c6c65723a206f7065726174696f6e206973604082015269206e6f7420726561647960b01b606082015260800190565b8183823760009101908152919050565b80820281158282048414176105b8576105b861193d565b600081611bf757611bf761193d565b50600019019056fec2617efa69bab66782fa219543714338489c4e9e178271560a91b82c3f612b58b09aa5aeb3702cfd50b6b62bc4532604938f21248a27a1d5ca736082b6819cc1d8aa0f3194971a2a116679f7c2090f6939c8d4e01a2a8d7e41d55e5351469e634cf4410cc57040e44862ef0f45f3dd5a5e02db8eb8add648d4b0e236f1d07dcafd643c72710c63c0180259aba6b2d05451e3591a24e58b62239378085726f783a264697066735822122090fd4ab2305667801ad3ea230ad0293950bc50096fbcfa5003cafad168d7ca4064736f6c634300081100335f58e3a2316349923ce3780f8d587db2d72378aed66a8261c916544fa6846ca5b09aa5aeb3702cfd50b6b62bc4532604938f21248a27a1d5ca736082b6819cc1d8aa0f3194971a2a116679f7c2090f6939c8d4e01a2a8d7e41d55e5351469e63fd643c72710c63c0180259aba6b2d05451e3591a24e58b62239378085726f78361016060405268056bc75e2d63100000600c553480156200001f57600080fd5b50604051620042ce380380620042ce8339810160408190526200004291620006ed565b8460ff8216878980620000696040805180820190915260018152603160f81b602082015290565b815160209283012081519183019190912060e08290526101008190524660a0818152604080517f8b73c3c69bb8fe3d512ecc4cf759cc79239f7b179b0ffacaa9a75d522b39400f818801819052818301969096526060810194909452608080850193909352308483018190528151808603909301835260c094850190915281519190950120905291909152610120526000620001068282620008af565b50506001600160a01b031661014052620001208162000161565b506200012c81620002dd565b5050600991909155600a55600b80546001600160a01b0319166001600160a01b039290921691909117905550620009a3915050565b6064811115620001ea5760405162461bcd60e51b815260206004820152604360248201527f476f7665726e6f72566f74657351756f72756d4672616374696f6e3a2071756f60448201527f72756d4e756d657261746f72206f7665722071756f72756d44656e6f6d696e616064820152623a37b960e91b608482015260a4015b60405180910390fd5b6000620001f662000346565b90508015801590620002085750600654155b15620002835760066000016040518060400160405280600063ffffffff16815260200162000241846200037e60201b620013a21760201c565b6001600160e01b0390811690915282546001810184556000938452602093849020835194909301519091166401000000000263ffffffff909316929092179101555b6200029e826006620003ed60201b6200140f1790919060201c565b505060408051828152602081018490527f0553476bf02ef2726e8ce5ced78d63e26e602e4a2257b1f559418e24b4633997910160405180910390a15050565b600754604080516001600160a01b03928316815291831660208301527f08f74ea46ef7894f65eabfb5e6e695de773a000b47c529ab559178069b226401910160405180910390a1600780546001600160a01b0319166001600160a01b0392909216919091179055565b6006546000901562000377576200036960066200044060201b620014451760201c565b6001600160e01b0316905090565b5060055490565b60006001600160e01b03821115620003e95760405162461bcd60e51b815260206004820152602760248201527f53616665436173743a2076616c756520646f65736e27742066697420696e20326044820152663234206269747360c81b6064820152608401620001e1565b5090565b6000806200042a846000016200040e436200048e60201b620014831760201c565b62000424866200037e60201b620013a21760201c565b620004f5565b6001600160e01b03918216969116945092505050565b8054600090801562000484576200046c836200045e6001846200097b565b600091825260209091200190565b5464010000000090046001600160e01b031662000487565b60005b9392505050565b600063ffffffff821115620003e95760405162461bcd60e51b815260206004820152602660248201527f53616665436173743a2076616c756520646f65736e27742066697420696e203360448201526532206269747360d01b6064820152608401620001e1565b8254600090819080156200064a57600062000517876200045e6001856200097b565b60408051808201909152905463ffffffff8082168084526401000000009092046001600160e01b0316602084015291925090871610156200059b5760405162461bcd60e51b815260206004820152601760248201527f436865636b706f696e743a20696e76616c6964206b65790000000000000000006044820152606401620001e1565b805163ffffffff808816911603620005e95784620005c0886200045e6001866200097b565b80546001600160e01b03929092166401000000000263ffffffff90921691909117905562000639565b6040805180820190915263ffffffff80881682526001600160e01b0380881660208085019182528b54600181018d5560008d81529190912094519151909216640100000000029216919091179101555b602001519250839150620006a09050565b50506040805180820190915263ffffffff80851682526001600160e01b0380851660208085019182528854600181018a5560008a8152918220955192519093166401000000000291909316179201919091559050815b935093915050565b634e487b7160e01b600052604160045260246000fd5b80516001600160a01b0381168114620006d657600080fd5b919050565b805160ff81168114620006d657600080fd5b600080600080600080600060e0888a0312156200070957600080fd5b87516001600160401b03808211156200072157600080fd5b818a0191508a601f8301126200073657600080fd5b8151818111156200074b576200074b620006a8565b604051601f8201601f19908116603f01168101908382118183101715620007765762000776620006a8565b81604052828152602093508d848487010111156200079357600080fd5b600091505b82821015620007b7578482018401518183018501529083019062000798565b6000848483010152809b50505050620007d2818b01620006be565b97505050620007e460408901620006be565b9450620007f460608901620006be565b93506080880151925060a088015191506200081260c08901620006db565b905092959891949750929550565b600181811c908216806200083557607f821691505b6020821081036200085657634e487b7160e01b600052602260045260246000fd5b50919050565b601f821115620008aa57600081815260208120601f850160051c81016020861015620008855750805b601f850160051c820191505b81811015620008a65782815560010162000891565b5050505b505050565b81516001600160401b03811115620008cb57620008cb620006a8565b620008e381620008dc845462000820565b846200085c565b602080601f8311600181146200091b5760008415620009025750858301515b600019600386901b1c1916600185901b178555620008a6565b600085815260208120601f198616915b828110156200094c578886015182559484019460019091019084016200092b565b50858210156200096b5787850151600019600388901b60f8161c191681555b5050505050600190811b01905550565b818103818111156200099d57634e487b7160e01b600052601160045260246000fd5b92915050565b60805160a05160c05160e0516101005161012051610140516138c262000a0c6000396000818161079501528181611e4e0152611f6001526000612279015260006122c8015260006122a3015260006121fc015260006122260152600061225001526138c26000f3fe6080604052600436106101cf5760003560e01c806301ffc9a7146101f757806302a251a31461022c578063034201811461024b57806306f3f9e61461026b57806306fdde031461028b578063150b7a02146102ad578063160cbed7146102f15780632656227d146103115780632d63f693146103245780632fe3e261146103445780633013ce29146103665780633932abb11461039e5780633bccf4fd146103b35780633e4f49e6146103d35780634385963214610400578063544ffc9c1461044a57806354fd4d501461049f57806356781388146104c95780635f398a14146104e957806360c4247f146105095780637b3c71d3146105295780637d5e81e21461054957806397c3d334146105695780639a802a6d1461057d578063a7713a701461059d578063a890c910146105b2578063ab58fb8e146105d2578063b58131b0146105f2578063b688a36314610606578063bc197c811461061b578063c01f9e3714610647578063c28bc2fa14610667578063c59057e41461067a578063d33219b41461069a578063dd4e2ba5146106af578063deaaa7cc146106f5578063eb9019d414610717578063f23a6e6114610737578063f8ce560a14610763578063fc0c546a1461078357600080fd5b366101f257306101dd6107b7565b6001600160a01b0316146101f057600080fd5b005b600080fd5b34801561020357600080fd5b506102176102123660046129c2565b6107c6565b60405190151581526020015b60405180910390f35b34801561023857600080fd5b50600a545b604051908152602001610223565b34801561025757600080fd5b5061023d610266366004612b00565b6107d7565b34801561027757600080fd5b506101f0610286366004612ba6565b6108bd565b34801561029757600080fd5b506102a0610950565b6040516102239190612c05565b3480156102b957600080fd5b506102d86102c8366004612c2d565b630a85bd0160e11b949350505050565b6040516001600160e01b03199091168152602001610223565b3480156102fd57600080fd5b5061023d61030c366004612e09565b6109e2565b61023d61031f366004612e09565b610be2565b34801561033057600080fd5b5061023d61033f366004612ba6565b610ccf565b34801561035057600080fd5b5061023d60008051602061386d83398151915281565b34801561037257600080fd5b50600b54610386906001600160a01b031681565b6040516001600160a01b039091168152602001610223565b3480156103aa57600080fd5b5060095461023d565b3480156103bf57600080fd5b5061023d6103ce366004612e98565b610d06565b3480156103df57600080fd5b506103f36103ee366004612ba6565b610d6a565b6040516102239190612efc565b34801561040c57600080fd5b5061021761041b366004612f24565b60008281526004602090815260408083206001600160a01b038516845260030190915290205460ff1692915050565b34801561045657600080fd5b50610484610465366004612ba6565b6000908152600460205260409020805460018201546002909201549092565b60408051938452602084019290925290820152606001610223565b3480156104ab57600080fd5b506040805180820190915260018152603160f81b60208201526102a0565b3480156104d557600080fd5b5061023d6104e4366004612f54565b610d75565b3480156104f557600080fd5b5061023d610504366004612f80565b610d9e565b34801561051557600080fd5b5061023d610524366004612ba6565b610de8565b34801561053557600080fd5b5061023d610544366004613003565b610e7f565b34801561055557600080fd5b5061023d61056436600461305c565b610ed1565b34801561057557600080fd5b50606461023d565b34801561058957600080fd5b5061023d610598366004613110565b610ee8565b3480156105a957600080fd5b5061023d610eff565b3480156105be57600080fd5b506101f06105cd366004613168565b610f29565b3480156105de57600080fd5b5061023d6105ed366004612ba6565b610fb0565b3480156105fe57600080fd5b50600061023d565b34801561061257600080fd5b506101f061104a565b34801561062757600080fd5b506102d8610636366004613185565b63bc197c8160e01b95945050505050565b34801561065357600080fd5b5061023d610662366004612ba6565b6111ef565b6101f0610675366004613218565b61121e565b34801561068657600080fd5b5061023d610695366004612e09565b61132d565b3480156106a657600080fd5b50610386611367565b3480156106bb57600080fd5b506040805180820190915260208082527f737570706f72743d627261766f2671756f72756d3d666f722c6162737461696e908201526102a0565b34801561070157600080fd5b5061023d60008051602061384d83398151915281565b34801561072357600080fd5b5061023d61073236600461325b565b611376565b34801561074357600080fd5b506102d8610752366004613287565b63f23a6e6160e01b95945050505050565b34801561076f57600080fd5b5061023d61077e366004612ba6565b611397565b34801561078f57600080fd5b506103867f000000000000000000000000000000000000000000000000000000000000000081565b60006107c1611367565b905090565b60006107d1826114e8565b92915050565b60008061086961086160008051602061386d8339815191528c8c8c8c6040516108019291906132ef565b60405180910390208b80519060200120604051602001610846959493929190948552602085019390935260ff9190911660408401526060830152608082015260a00190565b6040516020818303038152906040528051906020012061150d565b86868661155b565b90506108af8a828b8b8b8080601f0160208091040260200160405190810160405280939291908181526020018383808284376000920191909152508d9250611579915050565b9a9950505050505050505050565b6108c56107b7565b6001600160a01b0316336001600160a01b0316146108fe5760405162461bcd60e51b81526004016108f5906132ff565b60405180910390fd5b306109076107b7565b6001600160a01b03161461094457600080366040516109279291906132ef565b604051809103902090505b8061093d60026116de565b0361093257505b61094d81611744565b50565b60606000805461095f90613331565b80601f016020809104026020016040519081016040528092919081815260200182805461098b90613331565b80156109d85780601f106109ad576101008083540402835291602001916109d8565b820191906000526020600020905b8154815290600101906020018083116109bb57829003601f168201915b5050505050905090565b6000806109f18686868661132d565b905060046109fe82610d6a565b6007811115610a0f57610a0f612ee6565b14610a2c5760405162461bcd60e51b81526004016108f59061336b565b6007546040805163793d064960e11b815290516000926001600160a01b03169163f27a0c929160048083019260209291908290030181865afa158015610a76573d6000803e3d6000fd5b505050506040513d601f19601f82011682018060405250810190610a9a91906133ac565b60075460405163b1c5f42760e01b81529192506001600160a01b03169063b1c5f42790610ad4908a908a908a906000908b9060040161348e565b602060405180830381865afa158015610af1573d6000803e3d6000fd5b505050506040513d601f19601f82011682018060405250810190610b1591906133ac565b6000838152600860205260408082209290925560075491516308f2a0bb60e41b81526001600160a01b0390921691638f2a0bb091610b60918b918b918b91908b9089906004016134dc565b600060405180830381600087803b158015610b7a57600080fd5b505af1158015610b8e573d6000803e3d6000fd5b505050507f9a2e42fd6722813d69113e7d0079d3d940171428df7373df9c7f7617cfda2892828242610bc0919061354a565b6040805192835260208301919091520160405180910390a15095945050505050565b600080610bf18686868661132d565b90506000610bfe82610d6a565b90506004816007811115610c1457610c14612ee6565b1480610c3157506005816007811115610c2f57610c2f612ee6565b145b610c4d5760405162461bcd60e51b81526004016108f59061336b565b600082815260016020818152604092839020600201805460ff191690921790915590518381527f712ae1383f79ac853f8d882153778e0260ef8f03b504e2866e0593e04d2b291f910160405180910390a1610cab8288888888611890565b610cb88288888888611932565b610cc5828888888861193f565b5095945050505050565b60008181526001602090815260408083208151928301909152546001600160401b0316908190525b6001600160401b031692915050565b6040805160008051602061384d833981519152602082015290810186905260ff851660608201526000908190610d429061086190608001610846565b9050610d5f8782886040518060200160405280600081525061196e565b979650505050505050565b60006107d182611991565b600080339050610d968482856040518060200160405280600081525061196e565b949350505050565b600080339050610d5f87828888888080601f0160208091040260200160405190810160405280939291908181526020018383808284376000920191909152508a9250611579915050565b600654600090808203610dff575050600554919050565b60006006610e0e60018461355d565b81548110610e1e57610e1e613570565b60009182526020918290206040805180820190915291015463ffffffff8116808352600160201b9091046001600160e01b03169282019290925291508410610e7457602001516001600160e01b03169392505050565b610d96600685611adb565b600080339050610ec786828787878080601f01602080910402602001604051908101604052809392919081815260200183838082843760009201919091525061196e92505050565b9695505050505050565b6000610edf85858585611b8d565b95945050505050565b6000610ef5848484611e25565b90505b9392505050565b60065460009015610f2257610f146006611445565b6001600160e01b0316905090565b5060055490565b610f316107b7565b6001600160a01b0316336001600160a01b031614610f615760405162461bcd60e51b81526004016108f5906132ff565b30610f6a6107b7565b6001600160a01b031614610fa75760008036604051610f8a9291906132ef565b604051809103902090505b80610fa060026116de565b03610f9557505b61094d81611ebb565b60075460008281526008602052604080822054905163d45c443560e01b81526004810191909152909182916001600160a01b039091169063d45c443590602401602060405180830381865afa15801561100d573d6000803e3d6000fd5b505050506040513d601f19601f8201168201806040525081019061103191906133ac565b9050806001146110415780610ef8565b60009392505050565b600b54604051636eb1769f60e11b81526000916001600160a01b03169063dd62ed3e9061107d9032903090600401613586565b602060405180830381865afa15801561109a573d6000803e3d6000fd5b505050506040513d601f19601f820116820180604052508101906110be91906133ac565b9050600c548110156111095760405162461bcd60e51b81526020600482015260146024820152734d7573742070617920746865206d696e696d756d60601b60448201526064016108f5565b600b546000906001600160a01b03166323b872dd32611126611367565b600c546040516001600160e01b031960e086901b1681526001600160a01b03938416600482015292909116602483015260448201526064016020604051808303816000875af115801561117d573d6000803e3d6000fd5b505050506040513d601f19601f820116820180604052508101906111a191906135a0565b9050806111eb5760405162461bcd60e51b815260206004820152601860248201527704661696c656420746f207472616e736665722045524332360441b60448201526064016108f5565b5050565b60008181526001602081815260408084208151928301909152909101546001600160401b031690819052610cf7565b6112266107b7565b6001600160a01b0316336001600160a01b0316146112565760405162461bcd60e51b81526004016108f5906132ff565b3061125f6107b7565b6001600160a01b03161461129c576000803660405161127f9291906132ef565b604051809103902090505b8061129560026116de565b0361128a57505b600080856001600160a01b03168585856040516112ba9291906132ef565b60006040518083038185875af1925050503d80600081146112f7576040519150601f19603f3d011682016040523d82523d6000602084013e6112fc565b606091505b5091509150611324828260405180606001604052806028815260200161382560289139611f24565b50505050505050565b60008484848460405160200161134694939291906135c2565b60408051601f19818403018152919052805160209091012095945050505050565b6007546001600160a01b031690565b6000610ef8838361139260408051602081019091526000815290565b611e25565b60006107d182611f3d565b60006001600160e01b0382111561140b5760405162461bcd60e51b815260206004820152602760248201527f53616665436173743a2076616c756520646f65736e27742066697420696e20326044820152663234206269747360c81b60648201526084016108f5565b5090565b60008061142d8461141f43611483565b611428866113a2565b611fe7565b6001600160e01b0391821693501690505b9250929050565b805460009080156110415761146d8361145f60018461355d565b600091825260209091200190565b54600160201b90046001600160e01b0316610ef8565b600063ffffffff82111561140b5760405162461bcd60e51b815260206004820152602660248201527f53616665436173743a2076616c756520646f65736e27742066697420696e203360448201526532206269747360d01b60648201526084016108f5565b60006001600160e01b03198216636e665ced60e01b14806107d157506107d182612184565b60006107d161151a6121ef565b8360405161190160f01b6020820152602281018390526042810182905260009060620160405160208183030381529060405280519060200120905092915050565b600080600061156c87878787612316565b91509150610cc5816123d0565b600085815260016020819052604082209061159388610d6a565b60078111156115a4576115a4612ee6565b146115fd5760405162461bcd60e51b815260206004820152602360248201527f476f7665726e6f723a20766f7465206e6f742063757272656e746c792061637460448201526269766560e81b60648201526084016108f5565b604080516020810190915281546001600160401b03169081905260009061162690889086611e25565b90506116358888888488612515565b835160000361168a57866001600160a01b03167fb8e138887d0aa13bab447e82de9d5c1777041ecd21ca36ba824ff1e6c07ddda48988848960405161167d949392919061360d565b60405180910390a2610d5f565b866001600160a01b03167fe2babfbac5889a709b63bb7f598b324e08bc5a4fb9ec647fb3cbc9ec07eb871289888489896040516116cb959493929190613635565b60405180910390a2979650505050505050565b60006116e98261268f565b1561170757604051631ed9509560e11b815260040160405180910390fd5b508054600f0b6000818152600180840160205260408220805492905583546001600160801b03191692016001600160801b03169190911790915590565b60648111156117c75760405162461bcd60e51b815260206004820152604360248201527f476f7665726e6f72566f74657351756f72756d4672616374696f6e3a2071756f60448201527f72756d4e756d657261746f72206f7665722071756f72756d44656e6f6d696e616064820152623a37b960e91b608482015260a4016108f5565b60006117d1610eff565b905080158015906117e25750600654155b1561184657604080518082019091526000815260069060208101611805846113a2565b6001600160e01b039081169091528254600181018455600093845260209384902083519490930151909116600160201b0263ffffffff909316929092179101555b61185160068361140f565b505060408051828152602081018490527f0553476bf02ef2726e8ce5ced78d63e26e602e4a2257b1f559418e24b4633997910160405180910390a15050565b306118996107b7565b6001600160a01b03161461192b5760005b845181101561192957306001600160a01b03168582815181106118cf576118cf613570565b60200260200101516001600160a01b031603611919576119198382815181106118fa576118fa613570565b60200260200101518051906020012060026126a490919063ffffffff16565b6119228161367b565b90506118aa565b505b5050505050565b61192b85858585856126e0565b306119486107b7565b6001600160a01b03161461192b57611960600261268f565b61192b57600060025561192b565b6000610edf8585858561198c60408051602081019091526000815290565b611579565b60008061199d83612754565b905060048160078111156119b3576119b3612ee6565b146119be5792915050565b600083815260086020526040902054806119d9575092915050565b600754604051632ab0f52960e01b8152600481018390526001600160a01b0390911690632ab0f52990602401602060405180830381865afa158015611a22573d6000803e3d6000fd5b505050506040513d601f19601f82011682018060405250810190611a4691906135a0565b15611a55575060079392505050565b600754604051632c258a9f60e11b8152600481018390526001600160a01b039091169063584b153e90602401602060405180830381865afa158015611a9e573d6000803e3d6000fd5b505050506040513d601f19601f82011682018060405250810190611ac291906135a0565b15611ad1575060059392505050565b5060029392505050565b6000438210611b2c5760405162461bcd60e51b815260206004820181905260248201527f436865636b706f696e74733a20626c6f636b206e6f7420796574206d696e656460448201526064016108f5565b6000611b3783611483565b84549091506000611b4a86848385612863565b90508015611b7757611b618661145f60018461355d565b54600160201b90046001600160e01b0316611b7a565b60005b6001600160e01b03169695505050505050565b600080611b9f3361073260014361355d565b1015611c075760405162461bcd60e51b815260206004820152603160248201527f476f7665726e6f723a2070726f706f73657220766f7465732062656c6f7720706044820152701c9bdc1bdcd85b081d1a1c995cda1bdb19607a1b60648201526084016108f5565b6000611c1c868686868051906020012061132d565b90508451865114611c3f5760405162461bcd60e51b81526004016108f590613694565b8351865114611c605760405162461bcd60e51b81526004016108f590613694565b6000865111611cac5760405162461bcd60e51b815260206004820152601860248201527711dbdd995c9b9bdc8e88195b5c1d1e481c1c9bdc1bdcd85b60421b60448201526064016108f5565b600081815260016020908152604091829020825191820190925281546001600160401b03169081905215611d2c5760405162461bcd60e51b815260206004820152602160248201527f476f7665726e6f723a2070726f706f73616c20616c72656164792065786973746044820152607360f81b60648201526084016108f5565b6000611d3f611d3a60095490565b6128c1565b611d48436128c1565b611d5291906136d5565b90506000611d62611d3a600a5490565b611d6c90836136d5565b9050611d788383612929565b611d856001840182612929565b7f7d84a6263ae0d98d3329bd7b46bb4e8d6f98cd35a7adb45c274c8b7fd5ebd5e084338b8b8d516001600160401b03811115611dc357611dc3612a43565b604051908082528060200260200182016040528015611df657816020015b6060815260200190600190039081611de15790505b508c88888e604051611e10999897969594939291906136fc565b60405180910390a15091979650505050505050565b604051630748d63560e31b81526001600160a01b038481166004830152602482018490526000917f000000000000000000000000000000000000000000000000000000000000000090911690633a46b1a890604401602060405180830381865afa158015611e97573d6000803e3d6000fd5b505050506040513d601f19601f82011682018060405250810190610ef591906133ac565b6007546040517f08f74ea46ef7894f65eabfb5e6e695de773a000b47c529ab559178069b22640191611efa916001600160a01b03909116908490613586565b60405180910390a1600780546001600160a01b0319166001600160a01b0392909216919091179055565b60608315611f33575081610ef8565b610ef88383612946565b60006064611f4a83610de8565b604051632394e7a360e21b8152600481018590527f00000000000000000000000000000000000000000000000000000000000000006001600160a01b031690638e539e8c90602401602060405180830381865afa158015611faf573d6000803e3d6000fd5b505050506040513d601f19601f82011682018060405250810190611fd391906133ac565b611fdd91906137eb565b6107d19190613802565b8254600090819080156121275760006120058761145f60018561355d565b60408051808201909152905463ffffffff808216808452600160201b9092046001600160e01b0316602084015291925090871610156120805760405162461bcd60e51b8152602060048201526017602482015276436865636b706f696e743a20696e76616c6964206b657960481b60448201526064016108f5565b805163ffffffff8088169116036120c857846120a18861145f60018661355d565b80546001600160e01b0392909216600160201b0263ffffffff909216919091179055612117565b6040805180820190915263ffffffff80881682526001600160e01b0380881660208085019182528b54600181018d5560008d81529190912094519151909216600160201b029216919091179101555b60200151925083915061217c9050565b50506040805180820190915263ffffffff80851682526001600160e01b0380851660208085019182528854600181018a5560008a815291822095519251909316600160201b0291909316179201919091559050815b935093915050565b60006001600160e01b0319821663bf26d89760e01b14806121b557506001600160e01b031982166379dd796f60e01b145b806121d057506001600160e01b03198216630271189760e51b145b806107d157506301ffc9a760e01b6001600160e01b03198316146107d1565b6000306001600160a01b037f00000000000000000000000000000000000000000000000000000000000000001614801561224857507f000000000000000000000000000000000000000000000000000000000000000046145b1561227257507f000000000000000000000000000000000000000000000000000000000000000090565b50604080517f00000000000000000000000000000000000000000000000000000000000000006020808301919091527f0000000000000000000000000000000000000000000000000000000000000000828401527f000000000000000000000000000000000000000000000000000000000000000060608301524660808301523060a0808401919091528351808403909101815260c0909201909252805191012090565b6000806fa2a8918ca85bafe22016d0b997e4df60600160ff1b0383111561234357506000905060036123c7565b6040805160008082526020820180845289905260ff881692820192909252606081018690526080810185905260019060a0016020604051602081039080840390855afa158015612397573d6000803e3d6000fd5b5050604051601f1901519150506001600160a01b0381166123c0576000600192509250506123c7565b9150600090505b94509492505050565b60008160048111156123e4576123e4612ee6565b036123ec5750565b600181600481111561240057612400612ee6565b036124485760405162461bcd60e51b815260206004820152601860248201527745434453413a20696e76616c6964207369676e617475726560401b60448201526064016108f5565b600281600481111561245c5761245c612ee6565b036124a95760405162461bcd60e51b815260206004820152601f60248201527f45434453413a20696e76616c6964207369676e6174757265206c656e6774680060448201526064016108f5565b60038160048111156124bd576124bd612ee6565b0361094d5760405162461bcd60e51b815260206004820152602260248201527f45434453413a20696e76616c6964207369676e6174757265202773272076616c604482015261756560f01b60648201526084016108f5565b60008581526004602090815260408083206001600160a01b0388168452600381019092529091205460ff161561259d5760405162461bcd60e51b815260206004820152602760248201527f476f7665726e6f72566f74696e6753696d706c653a20766f746520616c726561604482015266191e4818d85cdd60ca1b60648201526084016108f5565b6001600160a01b03851660009081526003820160205260409020805460ff1916600117905560ff84166125e957828160000160008282546125de919061354a565b909155506119299050565b60001960ff85160161260957828160010160008282546125de919061354a565b60011960ff85160161262957828160020160008282546125de919061354a565b60405162461bcd60e51b815260206004820152603560248201527f476f7665726e6f72566f74696e6753696d706c653a20696e76616c69642076616044820152746c756520666f7220656e756d20566f74655479706560581b60648201526084016108f5565b54600f81810b600160801b909204900b131590565b8154600160801b90819004600f0b6000818152600180860160205260409091209390935583546001600160801b03908116939091011602179055565b60075460405163e38335e560e01b81526001600160a01b039091169063e38335e590349061271b90889088908890600090899060040161348e565b6000604051808303818588803b15801561273457600080fd5b505af1158015612748573d6000803e3d6000fd5b50505050505050505050565b6000818152600160205260408120600281015460ff16156127785750600792915050565b6002810154610100900460ff16156127935750600292915050565b600061279e84610ccf565b9050806000036127f05760405162461bcd60e51b815260206004820152601d60248201527f476f7665726e6f723a20756e6b6e6f776e2070726f706f73616c20696400000060448201526064016108f5565b438110612801575060009392505050565b600061280c856111ef565b905043811061282057506001949350505050565b61282985612970565b8015612848575060008581526004602052604090208054600190910154115b1561285857506004949350505050565b506003949350505050565b60005b818310156128b957600061287a84846129a7565b60008781526020902090915063ffffffff86169082015463ffffffff1611156128a5578092506128b3565b6128b081600161354a565b93505b50612866565b509392505050565b60006001600160401b0382111561140b5760405162461bcd60e51b815260206004820152602660248201527f53616665436173743a2076616c756520646f65736e27742066697420696e203660448201526534206269747360d01b60648201526084016108f5565b81546001600160401b0319166001600160401b0391909116179055565b8151156129565781518083602001fd5b8060405162461bcd60e51b81526004016108f59190612c05565b600081815260046020526040812060028101546001820154612992919061354a565b61299e61077e85610ccf565b11159392505050565b60006129b66002848418613802565b610ef89084841661354a565b6000602082840312156129d457600080fd5b81356001600160e01b031981168114610ef857600080fd5b803560ff811681146129fd57600080fd5b919050565b60008083601f840112612a1457600080fd5b5081356001600160401b03811115612a2b57600080fd5b60208301915083602082850101111561143e57600080fd5b634e487b7160e01b600052604160045260246000fd5b604051601f8201601f191681016001600160401b0381118282101715612a8157612a81612a43565b604052919050565b60006001600160401b03831115612aa257612aa2612a43565b612ab5601f8401601f1916602001612a59565b9050828152838383011115612ac957600080fd5b828260208301376000602084830101529392505050565b600082601f830112612af157600080fd5b610ef883833560208501612a89565b60008060008060008060008060e0898b031215612b1c57600080fd5b88359750612b2c60208a016129ec565b965060408901356001600160401b0380821115612b4857600080fd5b612b548c838d01612a02565b909850965060608b0135915080821115612b6d57600080fd5b50612b7a8b828c01612ae0565b945050612b8960808a016129ec565b925060a0890135915060c089013590509295985092959890939650565b600060208284031215612bb857600080fd5b5035919050565b6000815180845260005b81811015612be557602081850181015186830182015201612bc9565b506000602082860101526020601f19601f83011685010191505092915050565b602081526000610ef86020830184612bbf565b6001600160a01b038116811461094d57600080fd5b60008060008060808587031215612c4357600080fd5b8435612c4e81612c18565b93506020850135612c5e81612c18565b92506040850135915060608501356001600160401b03811115612c8057600080fd5b612c8c87828801612ae0565b91505092959194509250565b60006001600160401b03821115612cb157612cb1612a43565b5060051b60200190565b600082601f830112612ccc57600080fd5b81356020612ce1612cdc83612c98565b612a59565b82815260059290921b84018101918181019086841115612d0057600080fd5b8286015b84811015612d24578035612d1781612c18565b8352918301918301612d04565b509695505050505050565b600082601f830112612d4057600080fd5b81356020612d50612cdc83612c98565b82815260059290921b84018101918181019086841115612d6f57600080fd5b8286015b84811015612d245780358352918301918301612d73565b600082601f830112612d9b57600080fd5b81356020612dab612cdc83612c98565b82815260059290921b84018101918181019086841115612dca57600080fd5b8286015b84811015612d245780356001600160401b03811115612ded5760008081fd5b612dfb8986838b0101612ae0565b845250918301918301612dce565b60008060008060808587031215612e1f57600080fd5b84356001600160401b0380821115612e3657600080fd5b612e4288838901612cbb565b95506020870135915080821115612e5857600080fd5b612e6488838901612d2f565b94506040870135915080821115612e7a57600080fd5b50612e8787828801612d8a565b949793965093946060013593505050565b600080600080600060a08688031215612eb057600080fd5b85359450612ec0602087016129ec565b9350612ece604087016129ec565b94979396509394606081013594506080013592915050565b634e487b7160e01b600052602160045260246000fd5b6020810160088310612f1e57634e487b7160e01b600052602160045260246000fd5b91905290565b60008060408385031215612f3757600080fd5b823591506020830135612f4981612c18565b809150509250929050565b60008060408385031215612f6757600080fd5b82359150612f77602084016129ec565b90509250929050565b600080600080600060808688031215612f9857600080fd5b85359450612fa8602087016129ec565b935060408601356001600160401b0380821115612fc457600080fd5b612fd089838a01612a02565b90955093506060880135915080821115612fe957600080fd5b50612ff688828901612ae0565b9150509295509295909350565b6000806000806060858703121561301957600080fd5b84359350613029602086016129ec565b925060408501356001600160401b0381111561304457600080fd5b61305087828801612a02565b95989497509550505050565b6000806000806080858703121561307257600080fd5b84356001600160401b038082111561308957600080fd5b61309588838901612cbb565b955060208701359150808211156130ab57600080fd5b6130b788838901612d2f565b945060408701359150808211156130cd57600080fd5b6130d988838901612d8a565b935060608701359150808211156130ef57600080fd5b508501601f8101871361310157600080fd5b612c8c87823560208401612a89565b60008060006060848603121561312557600080fd5b833561313081612c18565b92506020840135915060408401356001600160401b0381111561315257600080fd5b61315e86828701612ae0565b9150509250925092565b60006020828403121561317a57600080fd5b8135610ef881612c18565b600080600080600060a0868803121561319d57600080fd5b85356131a881612c18565b945060208601356131b881612c18565b935060408601356001600160401b03808211156131d457600080fd5b6131e089838a01612d2f565b945060608801359150808211156131f657600080fd5b61320289838a01612d2f565b93506080880135915080821115612fe957600080fd5b6000806000806060858703121561322e57600080fd5b843561323981612c18565b93506020850135925060408501356001600160401b0381111561304457600080fd5b6000806040838503121561326e57600080fd5b823561327981612c18565b946020939093013593505050565b600080600080600060a0868803121561329f57600080fd5b85356132aa81612c18565b945060208601356132ba81612c18565b9350604086013592506060860135915060808601356001600160401b038111156132e357600080fd5b612ff688828901612ae0565b8183823760009101908152919050565b602080825260189082015277476f7665726e6f723a206f6e6c79476f7665726e616e636560401b604082015260600190565b600181811c9082168061334557607f821691505b60208210810361336557634e487b7160e01b600052602260045260246000fd5b50919050565b60208082526021908201527f476f7665726e6f723a2070726f706f73616c206e6f74207375636365737366756040820152601b60fa1b606082015260800190565b6000602082840312156133be57600080fd5b5051919050565b600081518084526020808501945080840160005b838110156133fe5781516001600160a01b0316875295820195908201906001016133d9565b509495945050505050565b600081518084526020808501945080840160005b838110156133fe5781518752958201959082019060010161341d565b600081518084526020808501808196508360051b8101915082860160005b8581101561348157828403895261346f848351612bbf565b98850198935090840190600101613457565b5091979650505050505050565b60a0815260006134a160a08301886133c5565b82810360208401526134b38188613409565b905082810360408401526134c78187613439565b60608401959095525050608001529392505050565b60c0815260006134ef60c08301896133c5565b82810360208401526135018189613409565b905082810360408401526135158188613439565b60608401969096525050608081019290925260a0909101529392505050565b634e487b7160e01b600052601160045260246000fd5b808201808211156107d1576107d1613534565b818103818111156107d1576107d1613534565b634e487b7160e01b600052603260045260246000fd5b6001600160a01b0392831681529116602082015260400190565b6000602082840312156135b257600080fd5b81518015158114610ef857600080fd5b6080815260006135d560808301876133c5565b82810360208401526135e78187613409565b905082810360408401526135fb8186613439565b91505082606083015295945050505050565b84815260ff84166020820152826040820152608060608201526000610ec76080830184612bbf565b85815260ff8516602082015283604082015260a06060820152600061365d60a0830185612bbf565b828103608084015261366f8185612bbf565b98975050505050505050565b60006001820161368d5761368d613534565b5060010190565b60208082526021908201527f476f7665726e6f723a20696e76616c69642070726f706f73616c206c656e67746040820152600d60fb1b606082015260800190565b6001600160401b038181168382160190808211156136f5576136f5613534565b5092915050565b60006101208b8352602060018060a01b038c16818501528160408501526137258285018c6133c5565b91508382036060850152613739828b613409565b915083820360808501528189518084528284019150828160051b850101838c0160005b8381101561378a57601f19878403018552613778838351612bbf565b9486019492509085019060010161375c565b505086810360a088015261379e818c613439565b9450505050506137b960c08401876001600160401b03169052565b6001600160401b03851660e08401528281036101008401526137db8185612bbf565b9c9b505050505050505050505050565b80820281158282048414176107d1576107d1613534565b60008261381f57634e487b7160e01b600052601260045260246000fd5b50049056fe476f7665726e6f723a2072656c617920726576657274656420776974686f7574206d657373616765150214d74d59b7d1e90c73fc22ef3d991dd0a76b046543d4d80ab92d2a50328fb3b3f3b703cd84ce352197dcff232b1b5d3cfb2025ce47cf04742d0651f1af88a264697066735822122024e0fc4ad4bf207471ca5342295e79daca5b06808675f90abc87e1cdfd771b1364736f6c634300081100336101406040523480156200001257600080fd5b50604051620029a9380380620029a9833981016040819052620000359162000261565b6040805180820190915260018152603160f81b60208201528290818360006200005f83826200037a565b5060016200006e82826200037a565b5050506200008b620000856200014660201b60201c565b6200014a565b815160208084019190912082518383012060e08290526101008190524660a0818152604080517f8b73c3c69bb8fe3d512ecc4cf759cc79239f7b179b0ffacaa9a75d522b39400f81880181905281830187905260608201869052608082019490945230818401528151808203909301835260c00190528051940193909320919290916080523060c052610120525050600c80546001600160a01b0319166001600160a01b039690961695909517909455506200044692505050565b3390565b600680546001600160a01b038381166001600160a01b0319831681179093556040519116919082907f8be0079c531659141344cd1fd0a4f28419497f9722a3daafe3b4186f6b6457e090600090a35050565b634e487b7160e01b600052604160045260246000fd5b600082601f830112620001c457600080fd5b81516001600160401b0380821115620001e157620001e16200019c565b604051601f8301601f19908116603f011681019082821181831017156200020c576200020c6200019c565b816040528381526020925086838588010111156200022957600080fd5b600091505b838210156200024d57858201830151818301840152908201906200022e565b600093810190920192909252949350505050565b6000806000606084860312156200027757600080fd5b83516001600160a01b03811681146200028f57600080fd5b60208501519093506001600160401b0380821115620002ad57600080fd5b620002bb87838801620001b2565b93506040860151915080821115620002d257600080fd5b50620002e186828701620001b2565b9150509250925092565b600181811c908216806200030057607f821691505b6020821081036200032157634e487b7160e01b600052602260045260246000fd5b50919050565b601f8211156200037557600081815260208120601f850160051c81016020861015620003505750805b601f850160051c820191505b8181101562000371578281556001016200035c565b5050505b505050565b81516001600160401b038111156200039657620003966200019c565b620003ae81620003a78454620002eb565b8462000327565b602080601f831160018114620003e65760008415620003cd5750858301515b600019600386901b1c1916600185901b17855562000371565b600085815260208120601f198616915b828110156200041757888601518255948401946001909101908401620003f6565b5085821015620004365787850151600019600388901b60f8161c191681555b5050505050600190811b01905550565b60805160a05160c05160e0516101005161012051612513620004966000396000610d2e01526000610d7d01526000610d5801526000610cb101526000610cdb01526000610d0501526125136000f3fe608060405234801561001057600080fd5b50600436106101335760003560e01c806301ffc9a71461013857806306fdde0314610160578063081812fc14610175578063095ea7b3146101a057806323b872dd146101b55780633644e515146101c85780633a46b1a8146101de57806340d097c3146101f157806342842e0e14610204578063587cde1e146102175780635c19a95c1461022a5780636352211e1461023d57806370a0823114610250578063715018a6146102635780637ecebe001461026b5780638da5cb5b1461027e5780638e539e8c1461028657806395d89b41146102995780639ab24eb0146102a1578063a22cb465146102b4578063b88d4fde146102c7578063c3cda520146102da578063c87b56dd146102ed578063e985e9c514610300578063f2fde38b14610313575b600080fd5b61014b610146366004611f14565b610326565b60405190151581526020015b60405180910390f35b610168610378565b6040516101579190611f81565b610188610183366004611f94565b61040a565b6040516001600160a01b039091168152602001610157565b6101b36101ae366004611fc9565b610431565b005b6101b36101c3366004611ff3565b61054b565b6101d061057c565b604051908152602001610157565b6101d06101ec366004611fc9565b61058b565b6101b36101ff36600461202f565b6105b4565b6101b3610212366004611ff3565b6105ef565b61018861022536600461202f565b61060a565b6101b361023836600461202f565b610628565b61018861024b366004611f94565b610633565b6101d061025e36600461202f565b610667565b6101b36106ed565b6101d061027936600461202f565b610701565b61018861071f565b6101d0610294366004611f94565b61072e565b610168610787565b6101d06102af36600461202f565b610796565b6101b36102c236600461204a565b6107c6565b6101b36102d536600461209c565b6107d1565b6101b36102e8366004612177565b610809565b6101686102fb366004611f94565b610931565b61014b61030e3660046121d7565b6109a4565b6101b361032136600461202f565b6109d2565b60006001600160e01b031982166380ac58cd60e01b148061035757506001600160e01b03198216635b5e139f60e01b145b8061037257506301ffc9a760e01b6001600160e01b03198316145b92915050565b6060600080546103879061220a565b80601f01602080910402602001604051908101604052809291908181526020018280546103b39061220a565b80156104005780601f106103d557610100808354040283529160200191610400565b820191906000526020600020905b8154815290600101906020018083116103e357829003601f168201915b5050505050905090565b600061041582610a4b565b506000908152600460205260409020546001600160a01b031690565b600061043c82610633565b9050806001600160a01b0316836001600160a01b0316036104ae5760405162461bcd60e51b815260206004820152602160248201527f4552433732313a20617070726f76616c20746f2063757272656e74206f776e656044820152603960f91b60648201526084015b60405180910390fd5b336001600160a01b03821614806104ca57506104ca81336109a4565b61053c5760405162461bcd60e51b815260206004820152603d60248201527f4552433732313a20617070726f76652063616c6c6572206973206e6f7420746f60448201527f6b656e206f776e6572206f7220617070726f76656420666f7220616c6c00000060648201526084016104a5565b6105468383610a70565b505050565b6105553382610ade565b6105715760405162461bcd60e51b81526004016104a59061223e565b610546838383610b3d565b6000610586610ca4565b905090565b6001600160a01b03821660009081526008602052604081206105ad9083610dcb565b9392505050565b6105bc610ee6565b60006105c7600b5490565b90506105d7600b80546001019055565b6105e18282610f45565b6105eb8283610f5f565b5050565b610546838383604051806020016040528060008152506107d1565b6001600160a01b039081166000908152600760205260409020541690565b336105eb8183610f5f565b60008061063f83610fda565b90506001600160a01b0381166103725760405162461bcd60e51b81526004016104a59061228b565b60006001600160a01b0382166106d15760405162461bcd60e51b815260206004820152602960248201527f4552433732313a2061646472657373207a65726f206973206e6f7420612076616044820152683634b21037bbb732b960b91b60648201526084016104a5565b506001600160a01b031660009081526003602052604090205490565b6106f5610ee6565b6106ff6000610ff5565b565b6001600160a01b0381166000908152600a6020526040812054610372565b6006546001600160a01b031690565b600043821061077c5760405162461bcd60e51b815260206004820152601a602482015279159bdd195cce88189b1bd8dac81b9bdd081e595d081b5a5b995960321b60448201526064016104a5565b610372600983610dcb565b6060600180546103879061220a565b6001600160a01b03811660009081526008602052604081206107b790611047565b6001600160e01b031692915050565b6105eb338383611080565b6107db3383610ade565b6107f75760405162461bcd60e51b81526004016104a59061223e565b6108038484848461114a565b50505050565b834211156108545760405162461bcd60e51b8152602060048201526018602482015277159bdd195cce881cda59db985d1d5c9948195e1c1a5c995960421b60448201526064016104a5565b604080517fe48329057bfd03d55e49b547132e39cffd9c1820ad7b9d4c5307691425d15adf60208201526001600160a01b0388169181019190915260608101869052608081018590526000906108ce906108c69060a0016040516020818303038152906040528051906020012061117d565b8585856111cb565b90506108d9816111f3565b861461091e5760405162461bcd60e51b8152602060048201526014602482015273566f7465733a20696e76616c6964206e6f6e636560601b60448201526064016104a5565b6109288188610f5f565b50505050505050565b606061093c82610a4b565b600061095360408051602081019091526000815290565b9050600081511161097357604051806020016040528060008152506105ad565b8061097d8461121b565b60405160200161098e9291906122bd565b6040516020818303038152906040529392505050565b6001600160a01b03918216600090815260056020908152604080832093909416825291909152205460ff1690565b6109da610ee6565b6001600160a01b038116610a3f5760405162461bcd60e51b815260206004820152602660248201527f4f776e61626c653a206e6577206f776e657220697320746865207a65726f206160448201526564647265737360d01b60648201526084016104a5565b610a4881610ff5565b50565b610a54816112ad565b610a485760405162461bcd60e51b81526004016104a59061228b565b600081815260046020526040902080546001600160a01b0319166001600160a01b0384169081179091558190610aa582610633565b6001600160a01b03167f8c5be1e5ebec7d5bd14f71427d1e84f3dd0314c0f7b2291e5b200ac8c7c3b92560405160405180910390a45050565b600080610aea83610633565b9050806001600160a01b0316846001600160a01b03161480610b115750610b1181856109a4565b80610b355750836001600160a01b0316610b2a8461040a565b6001600160a01b0316145b949350505050565b826001600160a01b0316610b5082610633565b6001600160a01b031614610b765760405162461bcd60e51b81526004016104a5906122ec565b6001600160a01b038216610bd85760405162461bcd60e51b8152602060048201526024808201527f4552433732313a207472616e7366657220746f20746865207a65726f206164646044820152637265737360e01b60648201526084016104a5565b610be583838360016112ca565b826001600160a01b0316610bf882610633565b6001600160a01b031614610c1e5760405162461bcd60e51b81526004016104a5906122ec565b600081815260046020908152604080832080546001600160a01b03199081169091556001600160a01b03878116808652600385528386208054600019019055908716808652838620805460010190558686526002909452828520805490921684179091559051849360008051602061249e83398151915291a46105468383836001611352565b6000306001600160a01b037f000000000000000000000000000000000000000000000000000000000000000016148015610cfd57507f000000000000000000000000000000000000000000000000000000000000000046145b15610d2757507f000000000000000000000000000000000000000000000000000000000000000090565b50604080517f00000000000000000000000000000000000000000000000000000000000000006020808301919091527f0000000000000000000000000000000000000000000000000000000000000000828401527f000000000000000000000000000000000000000000000000000000000000000060608301524660808301523060a0808401919091528351808403909101815260c0909201909252805191012090565b6000438210610e1c5760405162461bcd60e51b815260206004820181905260248201527f436865636b706f696e74733a20626c6f636b206e6f7420796574206d696e656460448201526064016104a5565b6000610e278361135e565b84549091506000816005811115610e85576000610e43846113c7565b610e4d9085612347565b60008981526020902090915081015463ffffffff9081169086161015610e7557809150610e83565b610e8081600161235a565b92505b505b6000610e93888685856114af565b90508015610ece57610eb888610eaa600184612347565b600091825260209091200190565b54600160201b90046001600160e01b0316610ed1565b60005b6001600160e01b031698975050505050505050565b33610eef61071f565b6001600160a01b0316146106ff5760405162461bcd60e51b815260206004820181905260248201527f4f776e61626c653a2063616c6c6572206973206e6f7420746865206f776e657260448201526064016104a5565b6105eb82826040518060200160405280600081525061150d565b6000610f6a8361060a565b6001600160a01b0384811660008181526007602052604080822080546001600160a01b031916888616908117909155905194955093928516927f3134e8a2e6d97e929a7e54011ea5485d7d196dd5f0ba4d4ef95803e8e3fc257f9190a46105468183610fd586611540565b61154b565b6000908152600260205260409020546001600160a01b031690565b600680546001600160a01b038381166001600160a01b0319831681179093556040519116919082907f8be0079c531659141344cd1fd0a4f28419497f9722a3daafe3b4186f6b6457e090600090a35050565b805460009080156110775761106183610eaa600184612347565b54600160201b90046001600160e01b03166105ad565b60009392505050565b816001600160a01b0316836001600160a01b0316036110dd5760405162461bcd60e51b815260206004820152601960248201527822a9219b99189d1030b8383937bb32903a379031b0b63632b960391b60448201526064016104a5565b6001600160a01b03838116600081815260056020908152604080832094871680845294825291829020805460ff191686151590811790915591519182527f17307eab39ab6107e8899845ad3d59bd9653f200f220920489ca2b5937696c31910160405180910390a3505050565b611155848484610b3d565b61116184848484611664565b6108035760405162461bcd60e51b81526004016104a59061236d565b600061037261118a610ca4565b8360405161190160f01b6020820152602281018390526042810182905260009060620160405160208183030381529060405280519060200120905092915050565b60008060006111dc87878787611762565b915091506111e98161181c565b5095945050505050565b6001600160a01b0381166000908152600a602052604090208054600181018255905b50919050565b6060600061122883611961565b60010190506000816001600160401b0381111561124757611247612086565b6040519080825280601f01601f191660200182016040528015611271576020820181803683370190505b5090508181016020015b600019016f181899199a1a9b1b9c1cb0b131b232b360811b600a86061a8153600a850494508461127b57509392505050565b6000806112b983610fda565b6001600160a01b0316141592915050565b6001811115610803576001600160a01b03841615611310576001600160a01b0384166000908152600360205260408120805483929061130a908490612347565b90915550505b6001600160a01b03831615610803576001600160a01b0383166000908152600360205260408120805483929061134790849061235a565b909155505050505050565b61080384848484611a37565b600063ffffffff8211156113c35760405162461bcd60e51b815260206004820152602660248201527f53616665436173743a2076616c756520646f65736e27742066697420696e203360448201526532206269747360d01b60648201526084016104a5565b5090565b6000816000036113d957506000919050565b600060016113e684611a47565b901c6001901b905060018184816113ff576113ff6123bf565b048201901c90506001818481611417576114176123bf565b048201901c9050600181848161142f5761142f6123bf565b048201901c90506001818481611447576114476123bf565b048201901c9050600181848161145f5761145f6123bf565b048201901c90506001818481611477576114776123bf565b048201901c9050600181848161148f5761148f6123bf565b048201901c90506105ad818285816114a9576114a96123bf565b04611adb565b60005b818310156115055760006114c68484611af1565b60008781526020902090915063ffffffff86169082015463ffffffff1611156114f1578092506114ff565b6114fc81600161235a565b93505b506114b2565b509392505050565b6115178383611b0c565b6115246000848484611664565b6105465760405162461bcd60e51b81526004016104a59061236d565b600061037282610667565b816001600160a01b0316836001600160a01b03161415801561156d5750600081115b15610546576001600160a01b038316156115e9576001600160a01b038316600090815260086020526040812081906115a890611c1f85611c2b565b91509150846001600160a01b03166000805160206124be83398151915283836040516115de929190918252602082015260400190565b60405180910390a250505b6001600160a01b03821615610546576001600160a01b0382166000908152600860205260408120819061161f90611c6385611c2b565b91509150836001600160a01b03166000805160206124be8339815191528383604051611655929190918252602082015260400190565b60405180910390a25050505050565b60006001600160a01b0384163b1561175a57604051630a85bd0160e11b81526001600160a01b0385169063150b7a02906116a89033908990889088906004016123d5565b6020604051808303816000875af19250505080156116e3575060408051601f3d908101601f191682019092526116e091810190612412565b60015b611740573d808015611711576040519150601f19603f3d011682016040523d82523d6000602084013e611716565b606091505b5080516000036117385760405162461bcd60e51b81526004016104a59061236d565b805181602001fd5b6001600160e01b031916630a85bd0160e11b149050610b35565b506001610b35565b6000806fa2a8918ca85bafe22016d0b997e4df60600160ff1b0383111561178f5750600090506003611813565b6040805160008082526020820180845289905260ff881692820192909252606081018690526080810185905260019060a0016020604051602081039080840390855afa1580156117e3573d6000803e3d6000fd5b5050604051601f1901519150506001600160a01b03811661180c57600060019250925050611813565b9150600090505b94509492505050565b60008160048111156118305761183061242f565b036118385750565b600181600481111561184c5761184c61242f565b036118945760405162461bcd60e51b815260206004820152601860248201527745434453413a20696e76616c6964207369676e617475726560401b60448201526064016104a5565b60028160048111156118a8576118a861242f565b036118f55760405162461bcd60e51b815260206004820152601f60248201527f45434453413a20696e76616c6964207369676e6174757265206c656e6774680060448201526064016104a5565b60038160048111156119095761190961242f565b03610a485760405162461bcd60e51b815260206004820152602260248201527f45434453413a20696e76616c6964207369676e6174757265202773272076616c604482015261756560f01b60648201526084016104a5565b60008072184f03e93ff9f4daa797ed6e38ed64bf6a1f0160401b83106119a05772184f03e93ff9f4daa797ed6e38ed64bf6a1f0160401b830492506040015b6904ee2d6d415b85acef8160201b83106119ca576904ee2d6d415b85acef8160201b830492506020015b662386f26fc1000083106119e857662386f26fc10000830492506010015b6305f5e1008310611a00576305f5e100830492506008015b6127108310611a1457612710830492506004015b60648310611a26576064830492506002015b600a83106103725760010192915050565b611a42848483611c6f565b610803565b600080608083901c15611a5c57608092831c92015b604083901c15611a6e57604092831c92015b602083901c15611a8057602092831c92015b601083901c15611a9257601092831c92015b600883901c15611aa457600892831c92015b600483901c15611ab657600492831c92015b600283901c15611ac857600292831c92015b600183901c156103725760010192915050565b6000818310611aea57816105ad565b5090919050565b6000611b006002848418612445565b6105ad9084841661235a565b6001600160a01b038216611b625760405162461bcd60e51b815260206004820181905260248201527f4552433732313a206d696e7420746f20746865207a65726f206164647265737360448201526064016104a5565b611b6b816112ad565b15611b885760405162461bcd60e51b81526004016104a590612467565b611b966000838360016112ca565b611b9f816112ad565b15611bbc5760405162461bcd60e51b81526004016104a590612467565b6001600160a01b038216600081815260036020908152604080832080546001019055848352600290915280822080546001600160a01b03191684179055518392919060008051602061249e833981519152908290a46105eb600083836001611352565b60006105ad8284612347565b600080611c5685611c51611c3e88611047565b6001600160e01b0316868863ffffffff16565b611cc8565b915091505b935093915050565b60006105ad828461235a565b6001600160a01b038316611c8e57611c8b6009611c6383611c2b565b50505b6001600160a01b038216611cad57611caa6009611c1f83611c2b565b50505b610546611cb98461060a565b611cc28461060a565b8361154b565b600080611ce684611cd84361135e565b611ce186611cfc565b611d65565b6001600160e01b03918216969116945092505050565b60006001600160e01b038211156113c35760405162461bcd60e51b815260206004820152602760248201527f53616665436173743a2076616c756520646f65736e27742066697420696e20326044820152663234206269747360c81b60648201526084016104a5565b825460009081908015611ea5576000611d8387610eaa600185612347565b60408051808201909152905463ffffffff808216808452600160201b9092046001600160e01b031660208401529192509087161015611dfe5760405162461bcd60e51b8152602060048201526017602482015276436865636b706f696e743a20696e76616c6964206b657960481b60448201526064016104a5565b805163ffffffff808816911603611e465784611e1f88610eaa600186612347565b80546001600160e01b0392909216600160201b0263ffffffff909216919091179055611e95565b6040805180820190915263ffffffff80881682526001600160e01b0380881660208085019182528b54600181018d5560008d81529190912094519151909216600160201b029216919091179101555b602001519250839150611c5b9050565b50506040805180820190915263ffffffff80851682526001600160e01b0380851660208085019182528854600181018a5560008a815291822095519251909316600160201b029190931617920191909155905081611c5b565b6001600160e01b031981168114610a4857600080fd5b600060208284031215611f2657600080fd5b81356105ad81611efe565b60005b83811015611f4c578181015183820152602001611f34565b50506000910152565b60008151808452611f6d816020860160208601611f31565b601f01601f19169290920160200192915050565b6020815260006105ad6020830184611f55565b600060208284031215611fa657600080fd5b5035919050565b80356001600160a01b0381168114611fc457600080fd5b919050565b60008060408385031215611fdc57600080fd5b611fe583611fad565b946020939093013593505050565b60008060006060848603121561200857600080fd5b61201184611fad565b925061201f60208501611fad565b9150604084013590509250925092565b60006020828403121561204157600080fd5b6105ad82611fad565b6000806040838503121561205d57600080fd5b61206683611fad565b91506020830135801515811461207b57600080fd5b809150509250929050565b634e487b7160e01b600052604160045260246000fd5b600080600080608085870312156120b257600080fd5b6120bb85611fad565b93506120c960208601611fad565b92506040850135915060608501356001600160401b03808211156120ec57600080fd5b818701915087601f83011261210057600080fd5b81358181111561211257612112612086565b604051601f8201601f19908116603f0116810190838211818310171561213a5761213a612086565b816040528281528a602084870101111561215357600080fd5b82602086016020830137600060208483010152809550505050505092959194509250565b60008060008060008060c0878903121561219057600080fd5b61219987611fad565b95506020870135945060408701359350606087013560ff811681146121bd57600080fd5b9598949750929560808101359460a0909101359350915050565b600080604083850312156121ea57600080fd5b6121f383611fad565b915061220160208401611fad565b90509250929050565b600181811c9082168061221e57607f821691505b60208210810361121557634e487b7160e01b600052602260045260246000fd5b6020808252602d908201527f4552433732313a2063616c6c6572206973206e6f7420746f6b656e206f776e6560408201526c1c881bdc88185c1c1c9bdd9959609a1b606082015260800190565b602080825260189082015277115490cdcc8c4e881a5b9d985b1a59081d1bdad95b88125160421b604082015260600190565b600083516122cf818460208801611f31565b8351908301906122e3818360208801611f31565b01949350505050565b60208082526025908201527f4552433732313a207472616e736665722066726f6d20696e636f72726563742060408201526437bbb732b960d91b606082015260800190565b634e487b7160e01b600052601160045260246000fd5b8181038181111561037257610372612331565b8082018082111561037257610372612331565b60208082526032908201527f4552433732313a207472616e7366657220746f206e6f6e20455243373231526560408201527131b2b4bb32b91034b6b83632b6b2b73a32b960711b606082015260800190565b634e487b7160e01b600052601260045260246000fd5b6001600160a01b038581168252841660208201526040810183905260806060820181905260009061240890830184611f55565b9695505050505050565b60006020828403121561242457600080fd5b81516105ad81611efe565b634e487b7160e01b600052602160045260246000fd5b60008261246257634e487b7160e01b600052601260045260246000fd5b500490565b6020808252601c908201527b115490cdcc8c4e881d1bdad95b88185b1c9958591e481b5a5b9d195960221b60408201526060019056feddf252ad1be2c89b69c2b068fc378daa952ba7f163c4a11628f55a4df523b3efdec2bacdd2f05b59de34da9b523dff8be42e5e38e818c82fdb0bae774387a724a26469706673582212204a56e886f1e4cc5e05a0bc51ca3a548d093f0c5f684ad3b7ae6f75bc899f098664736f6c63430008110033a26469706673582212207b11ee4c4f7e7020b66357895637c74be2059749fc286a9900330519ed48998164736f6c63430008110033",
  "linkReferences": {},
  "deployedLinkReferences": {}
}