{
  "_format": "hh-sol-artifact-1",
  "contractName": "OurCloneFactory",
  "sourceName": "contracts/OurCloneFactory.sol",
  "abi": [
    {
      "inputs": [
        {
          "internalType": "address",
          "name": "_governorImplementationContract",
          "type": "address"
        },
        {
          "internalType": "address",
          "name": "_timeLockImplementationContract",
          "type": "address"
        },
        {
          "internalType": "address",
          "name": "_erc721ImplementationContract",
          "type": "address"
        }
      ],
      "stateMutability": "nonpayable",
      "type": "constructor"
    },
    {
      "anonymous": false,
      "inputs": [
        {
          "indexed": false,
          "internalType": "address",
          "name": "dao",
          "type": "address"
        }
      ],
      "name": "NewDao",
      "type": "event"
    },
    {
      "anonymous": false,
      "inputs": [
        {
          "indexed": false,
          "internalType": "address",
          "name": "_erc721",
          "type": "address"
        }
      ],
      "name": "NewERC721Clone",
      "type": "event"
    },
    {
      "anonymous": false,
      "inputs": [
        {
          "indexed": false,
          "internalType": "address",
          "name": "_governor",
          "type": "address"
        }
      ],
      "name": "NewGovernorClone",
      "type": "event"
    },
    {
      "anonymous": false,
      "inputs": [
        {
          "indexed": false,
          "internalType": "address",
          "name": "_timeLock",
          "type": "address"
        }
      ],
      "name": "NewTimeLockClone",
      "type": "event"
    },
    {
      "inputs": [
        {
          "internalType": "uint256",
          "name": "",
          "type": "uint256"
        }
      ],
      "name": "DAOS",
      "outputs": [
        {
          "internalType": "address",
          "name": "governor",
          "type": "address"
        },
        {
          "internalType": "address",
          "name": "timelock",
          "type": "address"
        },
        {
          "internalType": "address",
          "name": "erc721",
          "type": "address"
        },
        {
          "internalType": "address",
          "name": "owner",
          "type": "address"
        }
      ],
      "stateMutability": "view",
      "type": "function"
    },
    {
      "inputs": [
        {
          "internalType": "uint256",
          "name": "",
          "type": "uint256"
        }
      ],
      "name": "allERC721",
      "outputs": [
        {
          "internalType": "address",
          "name": "",
          "type": "address"
        }
      ],
      "stateMutability": "view",
      "type": "function"
    },
    {
      "inputs": [
        {
          "internalType": "uint256",
          "name": "",
          "type": "uint256"
        }
      ],
      "name": "allGovernors",
      "outputs": [
        {
          "internalType": "address",
          "name": "",
          "type": "address"
        }
      ],
      "stateMutability": "view",
      "type": "function"
    },
    {
      "inputs": [
        {
          "internalType": "uint256",
          "name": "",
          "type": "uint256"
        }
      ],
      "name": "allTimeLocks",
      "outputs": [
        {
          "internalType": "address",
          "name": "",
          "type": "address"
        }
      ],
      "stateMutability": "view",
      "type": "function"
    },
    {
      "inputs": [
        {
          "internalType": "address",
          "name": "determinedGovernorAddress",
          "type": "address"
        },
        {
          "internalType": "string",
          "name": "_name",
          "type": "string"
        },
        {
          "internalType": "string",
          "name": "_description",
          "type": "string"
        },
        {
          "internalType": "contract IVotesUpgradeable",
          "name": "determinedTokenAddress",
          "type": "address"
        },
        {
          "internalType": "contract TimelockControllerUpgradeable",
          "name": "determinedTimeAddress",
          "type": "address"
        },
        {
          "internalType": "contract IERC20",
          "name": "_paymentToken",
          "type": "address"
        },
        {
          "internalType": "uint256",
          "name": "__votingDelay",
          "type": "uint256"
        },
        {
          "internalType": "uint256",
          "name": "__votingPeriod",
          "type": "uint256"
        },
        {
          "internalType": "uint8",
          "name": "_quorumFraction",
          "type": "uint8"
        },
        {
          "internalType": "string",
          "name": "_tokenName",
          "type": "string"
        },
        {
          "internalType": "string",
          "name": "_tokenSymbol",
          "type": "string"
        }
      ],
      "name": "createDAO",
      "outputs": [
        {
          "internalType": "address",
          "name": "",
          "type": "address"
        }
      ],
      "stateMutability": "nonpayable",
      "type": "function"
    },
    {
      "inputs": [
        {
          "internalType": "address",
          "name": "governor",
          "type": "address"
        },
        {
          "internalType": "string",
          "name": "_tokenName",
          "type": "string"
        },
        {
          "internalType": "string",
          "name": "_tokenSymbol",
          "type": "string"
        }
      ],
      "name": "createNewERC721",
      "outputs": [
        {
          "internalType": "address",
          "name": "",
          "type": "address"
        }
      ],
      "stateMutability": "nonpayable",
      "type": "function"
    },
    {
      "inputs": [
        {
          "internalType": "string",
          "name": "_name",
          "type": "string"
        },
        {
          "internalType": "string",
          "name": "_description",
          "type": "string"
        },
        {
          "internalType": "contract IVotesUpgradeable",
          "name": "_token",
          "type": "address"
        },
        {
          "internalType": "contract TimelockControllerUpgradeable",
          "name": "_timelock",
          "type": "address"
        },
        {
          "internalType": "contract IERC20",
          "name": "_paymentToken",
          "type": "address"
        },
        {
          "internalType": "uint256",
          "name": "__votingDelay",
          "type": "uint256"
        },
        {
          "internalType": "uint256",
          "name": "__votingPeriod",
          "type": "uint256"
        },
        {
          "internalType": "uint8",
          "name": "_quorumFraction",
          "type": "uint8"
        }
      ],
      "name": "createNewGovernor",
      "outputs": [
        {
          "internalType": "address",
          "name": "",
          "type": "address"
        }
      ],
      "stateMutability": "nonpayable",
      "type": "function"
    },
    {
      "inputs": [
        {
          "internalType": "uint256",
          "name": "minDelay",
          "type": "uint256"
        },
        {
          "internalType": "address",
          "name": "admin",
          "type": "address"
        },
        {
          "internalType": "uint256",
          "name": "_minAmount",
          "type": "uint256"
        }
      ],
      "name": "createNewTimeLock",
      "outputs": [
        {
          "internalType": "address",
          "name": "",
          "type": "address"
        }
      ],
      "stateMutability": "nonpayable",
      "type": "function"
    },
    {
      "inputs": [],
      "name": "erc721ImplementationContract",
      "outputs": [
        {
          "internalType": "address",
          "name": "",
          "type": "address"
        }
      ],
      "stateMutability": "view",
      "type": "function"
    },
    {
      "inputs": [],
      "name": "getArrayLength",
      "outputs": [
        {
          "internalType": "uint256",
          "name": "",
          "type": "uint256"
        }
      ],
      "stateMutability": "view",
      "type": "function"
    },
    {
      "inputs": [],
      "name": "getDaos",
      "outputs": [
        {
          "components": [
            {
              "internalType": "address",
              "name": "governor",
              "type": "address"
            },
            {
              "internalType": "address",
              "name": "timelock",
              "type": "address"
            },
            {
              "internalType": "address",
              "name": "erc721",
              "type": "address"
            },
            {
              "internalType": "address",
              "name": "owner",
              "type": "address"
            }
          ],
          "internalType": "struct OurCloneFactory.daoInformation[]",
          "name": "",
          "type": "tuple[]"
        }
      ],
      "stateMutability": "view",
      "type": "function"
    },
    {
      "inputs": [
        {
          "internalType": "uint256",
          "name": "_index",
          "type": "uint256"
        }
      ],
      "name": "getGovernorCloneFromArray",
      "outputs": [
        {
          "internalType": "address",
          "name": "",
          "type": "address"
        }
      ],
      "stateMutability": "view",
      "type": "function"
    },
    {
      "inputs": [
        {
          "internalType": "uint256",
          "name": "_dao",
          "type": "uint256"
        }
      ],
      "name": "getSpecificDAO",
      "outputs": [
        {
          "components": [
            {
              "internalType": "address",
              "name": "governor",
              "type": "address"
            },
            {
              "internalType": "address",
              "name": "timelock",
              "type": "address"
            },
            {
              "internalType": "address",
              "name": "erc721",
              "type": "address"
            },
            {
              "internalType": "address",
              "name": "owner",
              "type": "address"
            }
          ],
          "internalType": "struct OurCloneFactory.daoInformation",
          "name": "",
          "type": "tuple"
        }
      ],
      "stateMutability": "view",
      "type": "function"
    },
    {
      "inputs": [
        {
          "internalType": "uint256",
          "name": "_index",
          "type": "uint256"
        }
      ],
      "name": "getTimeLockCloneFromArray",
      "outputs": [
        {
          "internalType": "address",
          "name": "",
          "type": "address"
        }
      ],
      "stateMutability": "view",
      "type": "function"
    },
    {
      "inputs": [
        {
          "internalType": "uint256",
          "name": "_index",
          "type": "uint256"
        }
      ],
      "name": "getTokenCloneFromArray",
      "outputs": [
        {
          "internalType": "address",
          "name": "",
          "type": "address"
        }
      ],
      "stateMutability": "view",
      "type": "function"
    },
    {
      "inputs": [],
      "name": "governorImplementationContract",
      "outputs": [
        {
          "internalType": "address",
          "name": "",
          "type": "address"
        }
      ],
      "stateMutability": "view",
      "type": "function"
    },
    {
      "inputs": [],
      "name": "timeLockImplementationContract",
      "outputs": [
        {
          "internalType": "address",
          "name": "",
          "type": "address"
        }
      ],
      "stateMutability": "view",
      "type": "function"
    }
  ],
  "bytecode": "0x608060405234801561001057600080fd5b5060405161138738038061138783398101604081905261002f9161008d565b600080546001600160a01b039485166001600160a01b0319918216179091556001805493851693821693909317909255600280549190931691161790556100d0565b80516001600160a01b038116811461008857600080fd5b919050565b6000806000606084860312156100a257600080fd5b6100ab84610071565b92506100b960208501610071565b91506100c760408501610071565b90509250925092565b6112a8806100df6000396000f3fe608060405234801561001057600080fd5b50600436106100db5760003560e01c80630849cc99146100e05780630d2cf814146100f65780631f3797b41461011657806320bb5570146101295780632cee50e01461013c578063328455141461018257806344903a611461019557806351406ae2146101b557806354e48085146101c8578063858101ef146101db578063a1d36ce7146101ee578063b4a2b65f14610203578063b50e5e3a14610216578063bbf0613014610229578063db1f6d641461023c578063ecf8fa8b1461024f578063f7fb867614610262575b600080fd5b6006546040519081526020015b60405180910390f35b610109610104366004610c4a565b610275565b6040516100ed9190610c63565b600054610109906001600160a01b031681565b610109610137366004610d3c565b61029f565b61014f61014a366004610c4a565b6103a8565b604080516001600160a01b03958616815293851660208501529184169183019190915290911660608201526080016100ed565b610109610190366004610c4a565b6103f2565b6101a86101a3366004610c4a565b610422565b6040516100ed9190610de4565b6101096101c3366004610e09565b6104b3565b600154610109906001600160a01b031681565b6101096101e9366004610c4a565b610844565b6101f6610859565b6040516100ed9190610f26565b610109610211366004610c4a565b6108ec565b600254610109906001600160a01b031681565b610109610237366004610c4a565b6108fc565b61010961024a366004610f74565b610911565b61010961025d366004611033565b610a27565b610109610270366004610c4a565b610b36565b6003818154811061028557600080fd5b6000918252602090912001546001600160a01b0316905081565b60025460009081906102b9906001600160a01b0316610b46565b604051639065714760e01b81529091506001600160a01b038216906390657147906102ec908890889088906004016110b1565b600060405180830381600087803b15801561030657600080fd5b505af115801561031a573d6000803e3d6000fd5b505050507fe8f0188fa793b56840e3b155aaceb61fc8f9629f0830d189fc7bfdc3b8fcfa0c8160405161034d9190610c63565b60405180910390a1600580546001810182556000919091527f036b6384b5eca791c62761152d0c79bb0604c104a5fb6f4eb0703f3154bb3db00180546001600160a01b0319166001600160a01b038316179055949350505050565b600681815481106103b857600080fd5b600091825260209091206004909102018054600182015460028301546003909301546001600160a01b039283169450908216928216911684565b600060048281548110610407576104076110f1565b6000918252602090912001546001600160a01b031692915050565b60408051608081018252600080825260208201819052918101829052606081019190915260068281548110610459576104596110f1565b600091825260209182902060408051608081018252600490930290910180546001600160a01b0390811684526001820154811694840194909452600281015484169183019190915260030154909116606082015292915050565b6008805460018082019092557ff3f7a9fe364faab93b216da50a3214154f22a0a2b415b23a84c8169e8b636ee30180546001600160a01b031990811690915560078054928301815560009081527fa66cc928b5edb82af9bd49922954155ab7b0942694bea4ce44661d9a8736c68890920180549091166001600160a01b038e161790558061054461012c3283610a27565b90506105686040518060600160405280602181526020016112306021913982610be0565b806001600160a01b0316896001600160a01b0316146105bc5760405162461bcd60e51b815260206004820152600b60248201526a1d1a5b594811985a5b195960aa1b60448201526064015b60405180910390fd5b60006105ce8d8d8d8d8d8d8d8d610911565b9050806001600160a01b03168e6001600160a01b0316146106235760405162461bcd60e51b815260206004820152600f60248201526e11dbdd995c9b9bdc8811985a5b1959608a1b60448201526064016105b3565b6106626040518060400160405280602081526020017f61637574616c20476f7620416464726573732066726f6d20636f6e747261637481525082610be0565b600061066f8f878761029f565b9050806001600160a01b03168c6001600160a01b0316146106c15760405162461bcd60e51b815260206004820152600c60248201526b1d1bdad95b8811985a5b195960a21b60448201526064016105b3565b6106e36040518060600160405280602281526020016112516022913982610be0565b604080516080810182526001600160a01b03808516825285811660208301908152848216838501908152326060850190815260068054600181018255600091909152945160049095027ff652222313e28459528d920b65115c16c04f3efc82aaedc97be59f3f377c0d3f810180549686166001600160a01b031997881617905592517ff652222313e28459528d920b65115c16c04f3efc82aaedc97be59f3f377c0d408401805491861691871691909117905590517ff652222313e28459528d920b65115c16c04f3efc82aaedc97be59f3f377c0d4183018054918516918616919091179055517ff652222313e28459528d920b65115c16c04f3efc82aaedc97be59f3f377c0d429091018054919092169216919091179055517f4151ce56ab3a94964149099ff163e6cdba47cf43c500086155a842b76d0bfbfc9061082a908490610c63565b60405180910390a1509d9c50505050505050505050505050565b600060038281548110610407576104076110f1565b60606006805480602002602001604051908101604052809291908181526020016000905b828210156108e3576000848152602090819020604080516080810182526004860290920180546001600160a01b0390811684526001808301548216858701526002830154821693850193909352600390910154166060830152908352909201910161087d565b50505050905090565b6005818154811061028557600080fd5b600060058281548110610407576104076110f1565b600080548190610929906001600160a01b0316610b46565b6040516315651ce160e11b81529091506001600160a01b03821690632aca39c290610966908d908d908d908d908d908d908d908d90600401611107565b600060405180830381600087803b15801561098057600080fd5b505af1158015610994573d6000803e3d6000fd5b505050507f5344144d7ab264c24ac96f33a24b95cd066bec0872bc6860046bd4e12da286b9816040516109c79190610c63565b60405180910390a1600380546001810182556000919091527fc2575a0e9e593c00f959f8c92f12db2869c3395a3b0502d05e2516446f71f85b0180546001600160a01b0319166001600160a01b0383161790559998505050505050505050565b6001546000908190610a41906001600160a01b0316610b46565b60405163ad3025c160e01b81529091506001600160a01b0382169063ad3025c190610a7a9088906007906008908a908a906004016111bc565b600060405180830381600087803b158015610a9457600080fd5b505af1158015610aa8573d6000803e3d6000fd5b505050507f3048713a0240d88df04c556cfebc0810cf95d1f0c36c4d5c65615bd0f08a9d5f81604051610adb9190610c63565b60405180910390a1600480546001810182556000919091527f8a35acfbc15ff81a39ae7d344fd709f28e8600b4aa8c65c6b64bfe7fe36bd19b0180546001600160a01b0319166001600160a01b038316179055949350505050565b6004818154811061028557600080fd5b6000763d602d80600a3d3981f3363d3d373d3d3d363d730000008260601b60e81c176000526e5af43d82803e903d91602b57fd5bf38260781b17602052603760096000f090506001600160a01b038116610bdb5760405162461bcd60e51b8152602060048201526016602482015275115490cc4c4d8dce8818dc99585d194819985a5b195960521b60448201526064016105b3565b919050565b610c258282604051602401610bf6929190611205565b60408051601f198184030181529190526020810180516001600160e01b031663319af33360e01b179052610c29565b5050565b80516a636f6e736f6c652e6c6f67602083016000808483855afa5050505050565b600060208284031215610c5c57600080fd5b5035919050565b6001600160a01b0391909116815260200190565b6001600160a01b0381168114610c8c57600080fd5b50565b8035610bdb81610c77565b634e487b7160e01b600052604160045260246000fd5b600082601f830112610cc157600080fd5b81356001600160401b0380821115610cdb57610cdb610c9a565b604051601f8301601f19908116603f01168101908282118183101715610d0357610d03610c9a565b81604052838152866020858801011115610d1c57600080fd5b836020870160208301376000602085830101528094505050505092915050565b600080600060608486031215610d5157600080fd5b8335610d5c81610c77565b925060208401356001600160401b0380821115610d7857600080fd5b610d8487838801610cb0565b93506040860135915080821115610d9a57600080fd5b50610da786828701610cb0565b9150509250925092565b80516001600160a01b03908116835260208083015182169084015260408083015182169084015260609182015116910152565b60808101610df28284610db1565b92915050565b803560ff81168114610bdb57600080fd5b60008060008060008060008060008060006101608c8e031215610e2b57600080fd5b610e348c610c8f565b9a506001600160401b0360208d0135811015610e4f57600080fd5b610e5f8e60208f01358f01610cb0565b9a508060408e01351115610e7257600080fd5b610e828e60408f01358f01610cb0565b9950610e9060608e01610c8f565b9850610e9e60808e01610c8f565b9750610eac60a08e01610c8f565b965060c08d0135955060e08d01359450610ec96101008e01610df8565b9350806101208e01351115610edd57600080fd5b610eee8e6101208f01358f01610cb0565b9250806101408e01351115610f0257600080fd5b50610f148d6101408e01358e01610cb0565b90509295989b509295989b9093969950565b6020808252825182820181905260009190848201906040850190845b81811015610f6857610f55838551610db1565b9284019260809290920191600101610f42565b50909695505050505050565b600080600080600080600080610100898b031215610f9157600080fd5b88356001600160401b0380821115610fa857600080fd5b610fb48c838d01610cb0565b995060208b0135915080821115610fca57600080fd5b50610fd78b828c01610cb0565b9750506040890135610fe881610c77565b95506060890135610ff881610c77565b9450608089013561100881610c77565b935060a0890135925060c0890135915061102460e08a01610df8565b90509295985092959890939650565b60008060006060848603121561104857600080fd5b83359250602084013561105a81610c77565b929592945050506040919091013590565b6000815180845260005b8181101561109157602081850181015186830182015201611075565b506000602082860101526020601f19601f83011685010191505092915050565b6001600160a01b03841681526060602082018190526000906110d59083018561106b565b82810360408401526110e7818561106b565b9695505050505050565b634e487b7160e01b600052603260045260246000fd5b600061010080835261111b8184018c61106b565b9050828103602084015261112f818b61106b565b6001600160a01b03998a1660408501529789166060840152505093909516608084015260a083019190915260c082015260ff90921660e09092019190915292915050565b6000815480845260208085019450836000528060002060005b838110156111b15781546001600160a01b03168752958201956001918201910161118c565b509495945050505050565b85815260a0602082015260006111d560a0830187611173565b82810360408401526111e78187611173565b6001600160a01b039590951660608401525050608001529392505050565b604081526000611218604083018561106b565b905060018060a01b0383166020830152939250505056fe61637574616c2074696d6520416464726573732066726f6d20636f6e747261637461637574616c20746f6b656e20416464726573732066726f6d20636f6e7472616374a2646970667358221220101a16d210f4635d9e96e1b280dce731aa98b2f2dcea858bbb4221965b0bfb7364736f6c63430008110033",
  "linkReferences": {},
  "deployedLinkReferences": {}
}