{
  "_format": "hh-sol-artifact-1",
  "contractName": "OurCloneFactory",
  "sourceName": "contracts/OurCloneFactory.sol",
  "abi": [
    {
      "inputs": [
        {
          "internalType": "address",
          "name": "_governorImplementationContract",
          "type": "address"
        },
        {
          "internalType": "address",
          "name": "_timeLockImplementationContract",
          "type": "address"
        },
        {
          "internalType": "address",
          "name": "_erc721ImplementationContract",
          "type": "address"
        }
      ],
      "stateMutability": "nonpayable",
      "type": "constructor"
    },
    {
      "anonymous": false,
      "inputs": [
        {
          "indexed": false,
          "internalType": "address",
          "name": "_erc721",
          "type": "address"
        }
      ],
      "name": "NewERC721Clone",
      "type": "event"
    },
    {
      "anonymous": false,
      "inputs": [
        {
          "indexed": false,
          "internalType": "address",
          "name": "_governor",
          "type": "address"
        }
      ],
      "name": "NewGovernorClone",
      "type": "event"
    },
    {
      "anonymous": false,
      "inputs": [
        {
          "indexed": false,
          "internalType": "address",
          "name": "_timeLock",
          "type": "address"
        }
      ],
      "name": "NewTimeLockClone",
      "type": "event"
    },
    {
      "inputs": [
        {
          "internalType": "uint256",
          "name": "",
          "type": "uint256"
        }
      ],
      "name": "allERC721",
      "outputs": [
        {
          "internalType": "address",
          "name": "",
          "type": "address"
        }
      ],
      "stateMutability": "view",
      "type": "function"
    },
    {
      "inputs": [
        {
          "internalType": "uint256",
          "name": "",
          "type": "uint256"
        }
      ],
      "name": "allGovernors",
      "outputs": [
        {
          "internalType": "address",
          "name": "",
          "type": "address"
        }
      ],
      "stateMutability": "view",
      "type": "function"
    },
    {
      "inputs": [
        {
          "internalType": "uint256",
          "name": "",
          "type": "uint256"
        }
      ],
      "name": "allTimeLocks",
      "outputs": [
        {
          "internalType": "address",
          "name": "",
          "type": "address"
        }
      ],
      "stateMutability": "view",
      "type": "function"
    },
    {
      "inputs": [
        {
          "internalType": "address",
          "name": "determinedGovernorAddress",
          "type": "address"
        },
        {
          "internalType": "string",
          "name": "_name",
          "type": "string"
        },
        {
          "internalType": "string",
          "name": "_description",
          "type": "string"
        },
        {
          "internalType": "contract IVotesUpgradeable",
          "name": "determinedTokenAddress",
          "type": "address"
        },
        {
          "internalType": "contract TimelockControllerUpgradeable",
          "name": "determinedTimeAddress",
          "type": "address"
        },
        {
          "internalType": "contract IERC20",
          "name": "_paymentToken",
          "type": "address"
        },
        {
          "internalType": "uint256",
          "name": "__votingDelay",
          "type": "uint256"
        },
        {
          "internalType": "uint256",
          "name": "__votingPeriod",
          "type": "uint256"
        },
        {
          "internalType": "uint8",
          "name": "_quorumFraction",
          "type": "uint8"
        },
        {
          "internalType": "string",
          "name": "_tokenName",
          "type": "string"
        },
        {
          "internalType": "string",
          "name": "_tokenSymbol",
          "type": "string"
        }
      ],
      "name": "createDAO",
      "outputs": [
        {
          "internalType": "address",
          "name": "",
          "type": "address"
        }
      ],
      "stateMutability": "nonpayable",
      "type": "function"
    },
    {
      "inputs": [
        {
          "internalType": "address",
          "name": "governor",
          "type": "address"
        },
        {
          "internalType": "string",
          "name": "_tokenName",
          "type": "string"
        },
        {
          "internalType": "string",
          "name": "_tokenSymbol",
          "type": "string"
        }
      ],
      "name": "createNewERC721",
      "outputs": [
        {
          "internalType": "address",
          "name": "",
          "type": "address"
        }
      ],
      "stateMutability": "nonpayable",
      "type": "function"
    },
    {
      "inputs": [
        {
          "internalType": "string",
          "name": "_name",
          "type": "string"
        },
        {
          "internalType": "string",
          "name": "_description",
          "type": "string"
        },
        {
          "internalType": "contract IVotesUpgradeable",
          "name": "_token",
          "type": "address"
        },
        {
          "internalType": "contract TimelockControllerUpgradeable",
          "name": "_timelock",
          "type": "address"
        },
        {
          "internalType": "contract IERC20",
          "name": "_paymentToken",
          "type": "address"
        },
        {
          "internalType": "uint256",
          "name": "__votingDelay",
          "type": "uint256"
        },
        {
          "internalType": "uint256",
          "name": "__votingPeriod",
          "type": "uint256"
        },
        {
          "internalType": "uint8",
          "name": "_quorumFraction",
          "type": "uint8"
        }
      ],
      "name": "createNewGovernor",
      "outputs": [
        {
          "internalType": "address",
          "name": "",
          "type": "address"
        }
      ],
      "stateMutability": "nonpayable",
      "type": "function"
    },
    {
      "inputs": [
        {
          "internalType": "uint256",
          "name": "minDelay",
          "type": "uint256"
        },
        {
          "internalType": "address",
          "name": "admin",
          "type": "address"
        },
        {
          "internalType": "uint256",
          "name": "_minAmount",
          "type": "uint256"
        }
      ],
      "name": "createNewTimeLock",
      "outputs": [
        {
          "internalType": "address",
          "name": "",
          "type": "address"
        }
      ],
      "stateMutability": "nonpayable",
      "type": "function"
    },
    {
      "inputs": [],
      "name": "erc721ImplementationContract",
      "outputs": [
        {
          "internalType": "address",
          "name": "",
          "type": "address"
        }
      ],
      "stateMutability": "view",
      "type": "function"
    },
    {
      "inputs": [],
      "name": "getArrayLength",
      "outputs": [
        {
          "internalType": "uint256",
          "name": "",
          "type": "uint256"
        }
      ],
      "stateMutability": "view",
      "type": "function"
    },
    {
      "inputs": [
        {
          "internalType": "uint256",
          "name": "_index",
          "type": "uint256"
        }
      ],
      "name": "getGovernorCloneFromArray",
      "outputs": [
        {
          "internalType": "address",
          "name": "",
          "type": "address"
        }
      ],
      "stateMutability": "view",
      "type": "function"
    },
    {
      "inputs": [
        {
          "internalType": "uint256",
          "name": "_index",
          "type": "uint256"
        }
      ],
      "name": "getTimeLockCloneFromArray",
      "outputs": [
        {
          "internalType": "address",
          "name": "",
          "type": "address"
        }
      ],
      "stateMutability": "view",
      "type": "function"
    },
    {
      "inputs": [
        {
          "internalType": "uint256",
          "name": "_index",
          "type": "uint256"
        }
      ],
      "name": "getTokenCloneFromArray",
      "outputs": [
        {
          "internalType": "address",
          "name": "",
          "type": "address"
        }
      ],
      "stateMutability": "view",
      "type": "function"
    },
    {
      "inputs": [],
      "name": "governorImplementationContract",
      "outputs": [
        {
          "internalType": "address",
          "name": "",
          "type": "address"
        }
      ],
      "stateMutability": "view",
      "type": "function"
    },
    {
      "inputs": [],
      "name": "timeLockImplementationContract",
      "outputs": [
        {
          "internalType": "address",
          "name": "",
          "type": "address"
        }
      ],
      "stateMutability": "view",
      "type": "function"
    }
  ],
  "bytecode": "0x608060405234801561001057600080fd5b50604051610f56380380610f5683398101604081905261002f9161008d565b600080546001600160a01b039485166001600160a01b0319918216179091556001805493851693821693909317909255600280549190931691161790556100d0565b80516001600160a01b038116811461008857600080fd5b919050565b6000806000606084860312156100a257600080fd5b6100ab84610071565b92506100b960208501610071565b91506100c760408501610071565b90509250925092565b610e77806100df6000396000f3fe608060405234801561001057600080fd5b50600436106100ba5760003560e01c80630849cc99146100bf5780630d2cf814146100d55780631f3797b4146100f557806320bb557014610108578063328455141461011b57806351406ae21461012e57806354e4808514610141578063858101ef14610154578063b4a2b65f14610167578063b50e5e3a1461017a578063bbf061301461018d578063db1f6d64146101a0578063ecf8fa8b146101b3578063f7fb8676146101c6575b600080fd5b6003546040519081526020015b60405180910390f35b6100e86100e336600461091b565b6101d9565b6040516100cc9190610934565b6000546100e8906001600160a01b031681565b6100e8610116366004610a0d565b610203565b6100e861012936600461091b565b61030c565b6100e861013c366004610a93565b61033c565b6001546100e8906001600160a01b031681565b6100e861016236600461091b565b610612565b6100e861017536600461091b565b610627565b6002546100e8906001600160a01b031681565b6100e861019b36600461091b565b610637565b6100e86101ae366004610bb0565b61064c565b6100e86101c1366004610c6f565b610762565b6100e86101d436600461091b565b610871565b600381815481106101e957600080fd5b6000918252602090912001546001600160a01b0316905081565b600254600090819061021d906001600160a01b0316610881565b604051639065714760e01b81529091506001600160a01b0382169063906571479061025090889088908890600401610ced565b600060405180830381600087803b15801561026a57600080fd5b505af115801561027e573d6000803e3d6000fd5b505050507fe8f0188fa793b56840e3b155aaceb61fc8f9629f0830d189fc7bfdc3b8fcfa0c816040516102b19190610934565b60405180910390a1600580546001810182556000919091527f036b6384b5eca791c62761152d0c79bb0604c104a5fb6f4eb0703f3154bb3db00180546001600160a01b0319166001600160a01b038316179055949350505050565b60006004828154811061032157610321610d2d565b6000918252602090912001546001600160a01b031692915050565b6008805460018082019092557ff3f7a9fe364faab93b216da50a3214154f22a0a2b415b23a84c8169e8b636ee30180546001600160a01b031990811690915560078054928301815560009081527fa66cc928b5edb82af9bd49922954155ab7b0942694bea4ce44661d9a8736c68890920180549091166001600160a01b038e16179055806103cd61012c3283610762565b9050806001600160a01b0316896001600160a01b0316146104235760405162461bcd60e51b815260206004820152600b60248201526a1d1a5b594811985a5b195960aa1b60448201526064015b60405180910390fd5b60006104358d8d8d8d8d8d8d8d61064c565b9050806001600160a01b03168e6001600160a01b03161461048a5760405162461bcd60e51b815260206004820152600f60248201526e11dbdd995c9b9bdc8811985a5b1959608a1b604482015260640161041a565b60006104978f8787610203565b9050806001600160a01b03168c6001600160a01b0316146104e95760405162461bcd60e51b815260206004820152600c60248201526b1d1bdad95b8811985a5b195960a21b604482015260640161041a565b604080516080810182526001600160a01b03808516825294851660208201908152928516918101918252326060820190815260068054600181018255600091909152915160049092027ff652222313e28459528d920b65115c16c04f3efc82aaedc97be59f3f377c0d3f810180549388166001600160a01b031994851617905593517ff652222313e28459528d920b65115c16c04f3efc82aaedc97be59f3f377c0d408501805491881691841691909117905591517ff652222313e28459528d920b65115c16c04f3efc82aaedc97be59f3f377c0d418401805491871691831691909117905590517ff652222313e28459528d920b65115c16c04f3efc82aaedc97be59f3f377c0d4290920180549290941691161790915590509b9a5050505050505050505050565b60006003828154811061032157610321610d2d565b600581815481106101e957600080fd5b60006005828154811061032157610321610d2d565b600080548190610664906001600160a01b0316610881565b6040516315651ce160e11b81529091506001600160a01b03821690632aca39c2906106a1908d908d908d908d908d908d908d908d90600401610d43565b600060405180830381600087803b1580156106bb57600080fd5b505af11580156106cf573d6000803e3d6000fd5b505050507f5344144d7ab264c24ac96f33a24b95cd066bec0872bc6860046bd4e12da286b9816040516107029190610934565b60405180910390a1600380546001810182556000919091527fc2575a0e9e593c00f959f8c92f12db2869c3395a3b0502d05e2516446f71f85b0180546001600160a01b0319166001600160a01b0383161790559998505050505050505050565b600154600090819061077c906001600160a01b0316610881565b60405163ad3025c160e01b81529091506001600160a01b0382169063ad3025c1906107b59088906007906008908a908a90600401610df8565b600060405180830381600087803b1580156107cf57600080fd5b505af11580156107e3573d6000803e3d6000fd5b505050507f3048713a0240d88df04c556cfebc0810cf95d1f0c36c4d5c65615bd0f08a9d5f816040516108169190610934565b60405180910390a1600480546001810182556000919091527f8a35acfbc15ff81a39ae7d344fd709f28e8600b4aa8c65c6b64bfe7fe36bd19b0180546001600160a01b0319166001600160a01b038316179055949350505050565b600481815481106101e957600080fd5b6000763d602d80600a3d3981f3363d3d373d3d3d363d730000008260601b60e81c176000526e5af43d82803e903d91602b57fd5bf38260781b17602052603760096000f090506001600160a01b0381166109165760405162461bcd60e51b8152602060048201526016602482015275115490cc4c4d8dce8818dc99585d194819985a5b195960521b604482015260640161041a565b919050565b60006020828403121561092d57600080fd5b5035919050565b6001600160a01b0391909116815260200190565b6001600160a01b038116811461095d57600080fd5b50565b803561091681610948565b634e487b7160e01b600052604160045260246000fd5b600082601f83011261099257600080fd5b81356001600160401b03808211156109ac576109ac61096b565b604051601f8301601f19908116603f011681019082821181831017156109d4576109d461096b565b816040528381528660208588010111156109ed57600080fd5b836020870160208301376000602085830101528094505050505092915050565b600080600060608486031215610a2257600080fd5b8335610a2d81610948565b925060208401356001600160401b0380821115610a4957600080fd5b610a5587838801610981565b93506040860135915080821115610a6b57600080fd5b50610a7886828701610981565b9150509250925092565b803560ff8116811461091657600080fd5b60008060008060008060008060008060006101608c8e031215610ab557600080fd5b610abe8c610960565b9a506001600160401b0360208d0135811015610ad957600080fd5b610ae98e60208f01358f01610981565b9a508060408e01351115610afc57600080fd5b610b0c8e60408f01358f01610981565b9950610b1a60608e01610960565b9850610b2860808e01610960565b9750610b3660a08e01610960565b965060c08d0135955060e08d01359450610b536101008e01610a82565b9350806101208e01351115610b6757600080fd5b610b788e6101208f01358f01610981565b9250806101408e01351115610b8c57600080fd5b50610b9e8d6101408e01358e01610981565b90509295989b509295989b9093969950565b600080600080600080600080610100898b031215610bcd57600080fd5b88356001600160401b0380821115610be457600080fd5b610bf08c838d01610981565b995060208b0135915080821115610c0657600080fd5b50610c138b828c01610981565b9750506040890135610c2481610948565b95506060890135610c3481610948565b94506080890135610c4481610948565b935060a0890135925060c08901359150610c6060e08a01610a82565b90509295985092959890939650565b600080600060608486031215610c8457600080fd5b833592506020840135610c9681610948565b929592945050506040919091013590565b6000815180845260005b81811015610ccd57602081850181015186830182015201610cb1565b506000602082860101526020601f19601f83011685010191505092915050565b6001600160a01b0384168152606060208201819052600090610d1190830185610ca7565b8281036040840152610d238185610ca7565b9695505050505050565b634e487b7160e01b600052603260045260246000fd5b6000610100808352610d578184018c610ca7565b90508281036020840152610d6b818b610ca7565b6001600160a01b03998a1660408501529789166060840152505093909516608084015260a083019190915260c082015260ff90921660e09092019190915292915050565b6000815480845260208085019450836000528060002060005b83811015610ded5781546001600160a01b031687529582019560019182019101610dc8565b509495945050505050565b85815260a060208201526000610e1160a0830187610daf565b8281036040840152610e238187610daf565b6001600160a01b03959095166060840152505060800152939250505056fea26469706673582212200b97f798e15884f3732dbc5acd3dd818ca583fd81885cc901a2168b4e3eec69c64736f6c63430008110033",
  "linkReferences": {},
  "deployedLinkReferences": {}
}