{
  "_format": "hh-sol-artifact-1",
  "contractName": "TokenContract",
  "sourceName": "contracts/TokenContract.sol",
  "abi": [
    {
      "inputs": [
        {
          "internalType": "address",
          "name": "_governor",
          "type": "address"
        },
        {
          "internalType": "string",
          "name": "_tokenName",
          "type": "string"
        },
        {
          "internalType": "string",
          "name": "_tokenSymbol",
          "type": "string"
        }
      ],
      "stateMutability": "nonpayable",
      "type": "constructor"
    },
    {
      "anonymous": false,
      "inputs": [
        {
          "indexed": true,
          "internalType": "address",
          "name": "owner",
          "type": "address"
        },
        {
          "indexed": true,
          "internalType": "address",
          "name": "approved",
          "type": "address"
        },
        {
          "indexed": true,
          "internalType": "uint256",
          "name": "tokenId",
          "type": "uint256"
        }
      ],
      "name": "Approval",
      "type": "event"
    },
    {
      "anonymous": false,
      "inputs": [
        {
          "indexed": true,
          "internalType": "address",
          "name": "owner",
          "type": "address"
        },
        {
          "indexed": true,
          "internalType": "address",
          "name": "operator",
          "type": "address"
        },
        {
          "indexed": false,
          "internalType": "bool",
          "name": "approved",
          "type": "bool"
        }
      ],
      "name": "ApprovalForAll",
      "type": "event"
    },
    {
      "anonymous": false,
      "inputs": [
        {
          "indexed": true,
          "internalType": "address",
          "name": "delegator",
          "type": "address"
        },
        {
          "indexed": true,
          "internalType": "address",
          "name": "fromDelegate",
          "type": "address"
        },
        {
          "indexed": true,
          "internalType": "address",
          "name": "toDelegate",
          "type": "address"
        }
      ],
      "name": "DelegateChanged",
      "type": "event"
    },
    {
      "anonymous": false,
      "inputs": [
        {
          "indexed": true,
          "internalType": "address",
          "name": "delegate",
          "type": "address"
        },
        {
          "indexed": false,
          "internalType": "uint256",
          "name": "previousBalance",
          "type": "uint256"
        },
        {
          "indexed": false,
          "internalType": "uint256",
          "name": "newBalance",
          "type": "uint256"
        }
      ],
      "name": "DelegateVotesChanged",
      "type": "event"
    },
    {
      "anonymous": false,
      "inputs": [
        {
          "indexed": true,
          "internalType": "address",
          "name": "previousOwner",
          "type": "address"
        },
        {
          "indexed": true,
          "internalType": "address",
          "name": "newOwner",
          "type": "address"
        }
      ],
      "name": "OwnershipTransferred",
      "type": "event"
    },
    {
      "anonymous": false,
      "inputs": [
        {
          "indexed": true,
          "internalType": "address",
          "name": "from",
          "type": "address"
        },
        {
          "indexed": true,
          "internalType": "address",
          "name": "to",
          "type": "address"
        },
        {
          "indexed": true,
          "internalType": "uint256",
          "name": "tokenId",
          "type": "uint256"
        }
      ],
      "name": "Transfer",
      "type": "event"
    },
    {
      "inputs": [],
      "name": "DOMAIN_SEPARATOR",
      "outputs": [
        {
          "internalType": "bytes32",
          "name": "",
          "type": "bytes32"
        }
      ],
      "stateMutability": "view",
      "type": "function"
    },
    {
      "inputs": [
        {
          "internalType": "address",
          "name": "to",
          "type": "address"
        },
        {
          "internalType": "uint256",
          "name": "tokenId",
          "type": "uint256"
        }
      ],
      "name": "approve",
      "outputs": [],
      "stateMutability": "nonpayable",
      "type": "function"
    },
    {
      "inputs": [
        {
          "internalType": "address",
          "name": "owner",
          "type": "address"
        }
      ],
      "name": "balanceOf",
      "outputs": [
        {
          "internalType": "uint256",
          "name": "",
          "type": "uint256"
        }
      ],
      "stateMutability": "view",
      "type": "function"
    },
    {
      "inputs": [
        {
          "internalType": "address",
          "name": "delegatee",
          "type": "address"
        }
      ],
      "name": "delegate",
      "outputs": [],
      "stateMutability": "nonpayable",
      "type": "function"
    },
    {
      "inputs": [
        {
          "internalType": "address",
          "name": "delegatee",
          "type": "address"
        },
        {
          "internalType": "uint256",
          "name": "nonce",
          "type": "uint256"
        },
        {
          "internalType": "uint256",
          "name": "expiry",
          "type": "uint256"
        },
        {
          "internalType": "uint8",
          "name": "v",
          "type": "uint8"
        },
        {
          "internalType": "bytes32",
          "name": "r",
          "type": "bytes32"
        },
        {
          "internalType": "bytes32",
          "name": "s",
          "type": "bytes32"
        }
      ],
      "name": "delegateBySig",
      "outputs": [],
      "stateMutability": "nonpayable",
      "type": "function"
    },
    {
      "inputs": [
        {
          "internalType": "address",
          "name": "account",
          "type": "address"
        }
      ],
      "name": "delegates",
      "outputs": [
        {
          "internalType": "address",
          "name": "",
          "type": "address"
        }
      ],
      "stateMutability": "view",
      "type": "function"
    },
    {
      "inputs": [
        {
          "internalType": "uint256",
          "name": "tokenId",
          "type": "uint256"
        }
      ],
      "name": "getApproved",
      "outputs": [
        {
          "internalType": "address",
          "name": "",
          "type": "address"
        }
      ],
      "stateMutability": "view",
      "type": "function"
    },
    {
      "inputs": [
        {
          "internalType": "uint256",
          "name": "blockNumber",
          "type": "uint256"
        }
      ],
      "name": "getPastTotalSupply",
      "outputs": [
        {
          "internalType": "uint256",
          "name": "",
          "type": "uint256"
        }
      ],
      "stateMutability": "view",
      "type": "function"
    },
    {
      "inputs": [
        {
          "internalType": "address",
          "name": "account",
          "type": "address"
        },
        {
          "internalType": "uint256",
          "name": "blockNumber",
          "type": "uint256"
        }
      ],
      "name": "getPastVotes",
      "outputs": [
        {
          "internalType": "uint256",
          "name": "",
          "type": "uint256"
        }
      ],
      "stateMutability": "view",
      "type": "function"
    },
    {
      "inputs": [
        {
          "internalType": "address",
          "name": "account",
          "type": "address"
        }
      ],
      "name": "getVotes",
      "outputs": [
        {
          "internalType": "uint256",
          "name": "",
          "type": "uint256"
        }
      ],
      "stateMutability": "view",
      "type": "function"
    },
    {
      "inputs": [
        {
          "internalType": "address",
          "name": "owner",
          "type": "address"
        },
        {
          "internalType": "address",
          "name": "operator",
          "type": "address"
        }
      ],
      "name": "isApprovedForAll",
      "outputs": [
        {
          "internalType": "bool",
          "name": "",
          "type": "bool"
        }
      ],
      "stateMutability": "view",
      "type": "function"
    },
    {
      "inputs": [],
      "name": "name",
      "outputs": [
        {
          "internalType": "string",
          "name": "",
          "type": "string"
        }
      ],
      "stateMutability": "view",
      "type": "function"
    },
    {
      "inputs": [
        {
          "internalType": "address",
          "name": "owner",
          "type": "address"
        }
      ],
      "name": "nonces",
      "outputs": [
        {
          "internalType": "uint256",
          "name": "",
          "type": "uint256"
        }
      ],
      "stateMutability": "view",
      "type": "function"
    },
    {
      "inputs": [],
      "name": "owner",
      "outputs": [
        {
          "internalType": "address",
          "name": "",
          "type": "address"
        }
      ],
      "stateMutability": "view",
      "type": "function"
    },
    {
      "inputs": [
        {
          "internalType": "uint256",
          "name": "tokenId",
          "type": "uint256"
        }
      ],
      "name": "ownerOf",
      "outputs": [
        {
          "internalType": "address",
          "name": "",
          "type": "address"
        }
      ],
      "stateMutability": "view",
      "type": "function"
    },
    {
      "inputs": [],
      "name": "renounceOwnership",
      "outputs": [],
      "stateMutability": "nonpayable",
      "type": "function"
    },
    {
      "inputs": [
        {
          "internalType": "address",
          "name": "to",
          "type": "address"
        }
      ],
      "name": "safeMint",
      "outputs": [],
      "stateMutability": "nonpayable",
      "type": "function"
    },
    {
      "inputs": [
        {
          "internalType": "address",
          "name": "from",
          "type": "address"
        },
        {
          "internalType": "address",
          "name": "to",
          "type": "address"
        },
        {
          "internalType": "uint256",
          "name": "tokenId",
          "type": "uint256"
        }
      ],
      "name": "safeTransferFrom",
      "outputs": [],
      "stateMutability": "nonpayable",
      "type": "function"
    },
    {
      "inputs": [
        {
          "internalType": "address",
          "name": "from",
          "type": "address"
        },
        {
          "internalType": "address",
          "name": "to",
          "type": "address"
        },
        {
          "internalType": "uint256",
          "name": "tokenId",
          "type": "uint256"
        },
        {
          "internalType": "bytes",
          "name": "data",
          "type": "bytes"
        }
      ],
      "name": "safeTransferFrom",
      "outputs": [],
      "stateMutability": "nonpayable",
      "type": "function"
    },
    {
      "inputs": [
        {
          "internalType": "address",
          "name": "operator",
          "type": "address"
        },
        {
          "internalType": "bool",
          "name": "approved",
          "type": "bool"
        }
      ],
      "name": "setApprovalForAll",
      "outputs": [],
      "stateMutability": "nonpayable",
      "type": "function"
    },
    {
      "inputs": [
        {
          "internalType": "bytes4",
          "name": "interfaceId",
          "type": "bytes4"
        }
      ],
      "name": "supportsInterface",
      "outputs": [
        {
          "internalType": "bool",
          "name": "",
          "type": "bool"
        }
      ],
      "stateMutability": "view",
      "type": "function"
    },
    {
      "inputs": [],
      "name": "symbol",
      "outputs": [
        {
          "internalType": "string",
          "name": "",
          "type": "string"
        }
      ],
      "stateMutability": "view",
      "type": "function"
    },
    {
      "inputs": [
        {
          "internalType": "uint256",
          "name": "tokenId",
          "type": "uint256"
        }
      ],
      "name": "tokenURI",
      "outputs": [
        {
          "internalType": "string",
          "name": "",
          "type": "string"
        }
      ],
      "stateMutability": "view",
      "type": "function"
    },
    {
      "inputs": [
        {
          "internalType": "address",
          "name": "from",
          "type": "address"
        },
        {
          "internalType": "address",
          "name": "to",
          "type": "address"
        },
        {
          "internalType": "uint256",
          "name": "tokenId",
          "type": "uint256"
        }
      ],
      "name": "transferFrom",
      "outputs": [],
      "stateMutability": "nonpayable",
      "type": "function"
    },
    {
      "inputs": [
        {
          "internalType": "address",
          "name": "newOwner",
          "type": "address"
        }
      ],
      "name": "transferOwnership",
      "outputs": [],
      "stateMutability": "nonpayable",
      "type": "function"
    }
  ],
  "bytecode": "0x6101406040523480156200001257600080fd5b50604051620029a9380380620029a9833981016040819052620000359162000261565b6040805180820190915260018152603160f81b60208201528290818360006200005f83826200037a565b5060016200006e82826200037a565b5050506200008b620000856200014660201b60201c565b6200014a565b815160208084019190912082518383012060e08290526101008190524660a0818152604080517f8b73c3c69bb8fe3d512ecc4cf759cc79239f7b179b0ffacaa9a75d522b39400f81880181905281830187905260608201869052608082019490945230818401528151808203909301835260c00190528051940193909320919290916080523060c052610120525050600c80546001600160a01b0319166001600160a01b039690961695909517909455506200044692505050565b3390565b600680546001600160a01b038381166001600160a01b0319831681179093556040519116919082907f8be0079c531659141344cd1fd0a4f28419497f9722a3daafe3b4186f6b6457e090600090a35050565b634e487b7160e01b600052604160045260246000fd5b600082601f830112620001c457600080fd5b81516001600160401b0380821115620001e157620001e16200019c565b604051601f8301601f19908116603f011681019082821181831017156200020c576200020c6200019c565b816040528381526020925086838588010111156200022957600080fd5b600091505b838210156200024d57858201830151818301840152908201906200022e565b600093810190920192909252949350505050565b6000806000606084860312156200027757600080fd5b83516001600160a01b03811681146200028f57600080fd5b60208501519093506001600160401b0380821115620002ad57600080fd5b620002bb87838801620001b2565b93506040860151915080821115620002d257600080fd5b50620002e186828701620001b2565b9150509250925092565b600181811c908216806200030057607f821691505b6020821081036200032157634e487b7160e01b600052602260045260246000fd5b50919050565b601f8211156200037557600081815260208120601f850160051c81016020861015620003505750805b601f850160051c820191505b8181101562000371578281556001016200035c565b5050505b505050565b81516001600160401b038111156200039657620003966200019c565b620003ae81620003a78454620002eb565b8462000327565b602080601f831160018114620003e65760008415620003cd5750858301515b600019600386901b1c1916600185901b17855562000371565b600085815260208120601f198616915b828110156200041757888601518255948401946001909101908401620003f6565b5085821015620004365787850151600019600388901b60f8161c191681555b5050505050600190811b01905550565b60805160a05160c05160e0516101005161012051612513620004966000396000610d2e01526000610d7d01526000610d5801526000610cb101526000610cdb01526000610d0501526125136000f3fe608060405234801561001057600080fd5b50600436106101335760003560e01c806301ffc9a71461013857806306fdde0314610160578063081812fc14610175578063095ea7b3146101a057806323b872dd146101b55780633644e515146101c85780633a46b1a8146101de57806340d097c3146101f157806342842e0e14610204578063587cde1e146102175780635c19a95c1461022a5780636352211e1461023d57806370a0823114610250578063715018a6146102635780637ecebe001461026b5780638da5cb5b1461027e5780638e539e8c1461028657806395d89b41146102995780639ab24eb0146102a1578063a22cb465146102b4578063b88d4fde146102c7578063c3cda520146102da578063c87b56dd146102ed578063e985e9c514610300578063f2fde38b14610313575b600080fd5b61014b610146366004611f14565b610326565b60405190151581526020015b60405180910390f35b610168610378565b6040516101579190611f81565b610188610183366004611f94565b61040a565b6040516001600160a01b039091168152602001610157565b6101b36101ae366004611fc9565b610431565b005b6101b36101c3366004611ff3565b61054b565b6101d061057c565b604051908152602001610157565b6101d06101ec366004611fc9565b61058b565b6101b36101ff36600461202f565b6105b4565b6101b3610212366004611ff3565b6105ef565b61018861022536600461202f565b61060a565b6101b361023836600461202f565b610628565b61018861024b366004611f94565b610633565b6101d061025e36600461202f565b610667565b6101b36106ed565b6101d061027936600461202f565b610701565b61018861071f565b6101d0610294366004611f94565b61072e565b610168610787565b6101d06102af36600461202f565b610796565b6101b36102c236600461204a565b6107c6565b6101b36102d536600461209c565b6107d1565b6101b36102e8366004612177565b610809565b6101686102fb366004611f94565b610931565b61014b61030e3660046121d7565b6109a4565b6101b361032136600461202f565b6109d2565b60006001600160e01b031982166380ac58cd60e01b148061035757506001600160e01b03198216635b5e139f60e01b145b8061037257506301ffc9a760e01b6001600160e01b03198316145b92915050565b6060600080546103879061220a565b80601f01602080910402602001604051908101604052809291908181526020018280546103b39061220a565b80156104005780601f106103d557610100808354040283529160200191610400565b820191906000526020600020905b8154815290600101906020018083116103e357829003601f168201915b5050505050905090565b600061041582610a4b565b506000908152600460205260409020546001600160a01b031690565b600061043c82610633565b9050806001600160a01b0316836001600160a01b0316036104ae5760405162461bcd60e51b815260206004820152602160248201527f4552433732313a20617070726f76616c20746f2063757272656e74206f776e656044820152603960f91b60648201526084015b60405180910390fd5b336001600160a01b03821614806104ca57506104ca81336109a4565b61053c5760405162461bcd60e51b815260206004820152603d60248201527f4552433732313a20617070726f76652063616c6c6572206973206e6f7420746f60448201527f6b656e206f776e6572206f7220617070726f76656420666f7220616c6c00000060648201526084016104a5565b6105468383610a70565b505050565b6105553382610ade565b6105715760405162461bcd60e51b81526004016104a59061223e565b610546838383610b3d565b6000610586610ca4565b905090565b6001600160a01b03821660009081526008602052604081206105ad9083610dcb565b9392505050565b6105bc610ee6565b60006105c7600b5490565b90506105d7600b80546001019055565b6105e18282610f45565b6105eb8283610f5f565b5050565b610546838383604051806020016040528060008152506107d1565b6001600160a01b039081166000908152600760205260409020541690565b336105eb8183610f5f565b60008061063f83610fda565b90506001600160a01b0381166103725760405162461bcd60e51b81526004016104a59061228b565b60006001600160a01b0382166106d15760405162461bcd60e51b815260206004820152602960248201527f4552433732313a2061646472657373207a65726f206973206e6f7420612076616044820152683634b21037bbb732b960b91b60648201526084016104a5565b506001600160a01b031660009081526003602052604090205490565b6106f5610ee6565b6106ff6000610ff5565b565b6001600160a01b0381166000908152600a6020526040812054610372565b6006546001600160a01b031690565b600043821061077c5760405162461bcd60e51b815260206004820152601a602482015279159bdd195cce88189b1bd8dac81b9bdd081e595d081b5a5b995960321b60448201526064016104a5565b610372600983610dcb565b6060600180546103879061220a565b6001600160a01b03811660009081526008602052604081206107b790611047565b6001600160e01b031692915050565b6105eb338383611080565b6107db3383610ade565b6107f75760405162461bcd60e51b81526004016104a59061223e565b6108038484848461114a565b50505050565b834211156108545760405162461bcd60e51b8152602060048201526018602482015277159bdd195cce881cda59db985d1d5c9948195e1c1a5c995960421b60448201526064016104a5565b604080517fe48329057bfd03d55e49b547132e39cffd9c1820ad7b9d4c5307691425d15adf60208201526001600160a01b0388169181019190915260608101869052608081018590526000906108ce906108c69060a0016040516020818303038152906040528051906020012061117d565b8585856111cb565b90506108d9816111f3565b861461091e5760405162461bcd60e51b8152602060048201526014602482015273566f7465733a20696e76616c6964206e6f6e636560601b60448201526064016104a5565b6109288188610f5f565b50505050505050565b606061093c82610a4b565b600061095360408051602081019091526000815290565b9050600081511161097357604051806020016040528060008152506105ad565b8061097d8461121b565b60405160200161098e9291906122bd565b6040516020818303038152906040529392505050565b6001600160a01b03918216600090815260056020908152604080832093909416825291909152205460ff1690565b6109da610ee6565b6001600160a01b038116610a3f5760405162461bcd60e51b815260206004820152602660248201527f4f776e61626c653a206e6577206f776e657220697320746865207a65726f206160448201526564647265737360d01b60648201526084016104a5565b610a4881610ff5565b50565b610a54816112ad565b610a485760405162461bcd60e51b81526004016104a59061228b565b600081815260046020526040902080546001600160a01b0319166001600160a01b0384169081179091558190610aa582610633565b6001600160a01b03167f8c5be1e5ebec7d5bd14f71427d1e84f3dd0314c0f7b2291e5b200ac8c7c3b92560405160405180910390a45050565b600080610aea83610633565b9050806001600160a01b0316846001600160a01b03161480610b115750610b1181856109a4565b80610b355750836001600160a01b0316610b2a8461040a565b6001600160a01b0316145b949350505050565b826001600160a01b0316610b5082610633565b6001600160a01b031614610b765760405162461bcd60e51b81526004016104a5906122ec565b6001600160a01b038216610bd85760405162461bcd60e51b8152602060048201526024808201527f4552433732313a207472616e7366657220746f20746865207a65726f206164646044820152637265737360e01b60648201526084016104a5565b610be583838360016112ca565b826001600160a01b0316610bf882610633565b6001600160a01b031614610c1e5760405162461bcd60e51b81526004016104a5906122ec565b600081815260046020908152604080832080546001600160a01b03199081169091556001600160a01b03878116808652600385528386208054600019019055908716808652838620805460010190558686526002909452828520805490921684179091559051849360008051602061249e83398151915291a46105468383836001611352565b6000306001600160a01b037f000000000000000000000000000000000000000000000000000000000000000016148015610cfd57507f000000000000000000000000000000000000000000000000000000000000000046145b15610d2757507f000000000000000000000000000000000000000000000000000000000000000090565b50604080517f00000000000000000000000000000000000000000000000000000000000000006020808301919091527f0000000000000000000000000000000000000000000000000000000000000000828401527f000000000000000000000000000000000000000000000000000000000000000060608301524660808301523060a0808401919091528351808403909101815260c0909201909252805191012090565b6000438210610e1c5760405162461bcd60e51b815260206004820181905260248201527f436865636b706f696e74733a20626c6f636b206e6f7420796574206d696e656460448201526064016104a5565b6000610e278361135e565b84549091506000816005811115610e85576000610e43846113c7565b610e4d9085612347565b60008981526020902090915081015463ffffffff9081169086161015610e7557809150610e83565b610e8081600161235a565b92505b505b6000610e93888685856114af565b90508015610ece57610eb888610eaa600184612347565b600091825260209091200190565b54600160201b90046001600160e01b0316610ed1565b60005b6001600160e01b031698975050505050505050565b33610eef61071f565b6001600160a01b0316146106ff5760405162461bcd60e51b815260206004820181905260248201527f4f776e61626c653a2063616c6c6572206973206e6f7420746865206f776e657260448201526064016104a5565b6105eb82826040518060200160405280600081525061150d565b6000610f6a8361060a565b6001600160a01b0384811660008181526007602052604080822080546001600160a01b031916888616908117909155905194955093928516927f3134e8a2e6d97e929a7e54011ea5485d7d196dd5f0ba4d4ef95803e8e3fc257f9190a46105468183610fd586611540565b61154b565b6000908152600260205260409020546001600160a01b031690565b600680546001600160a01b038381166001600160a01b0319831681179093556040519116919082907f8be0079c531659141344cd1fd0a4f28419497f9722a3daafe3b4186f6b6457e090600090a35050565b805460009080156110775761106183610eaa600184612347565b54600160201b90046001600160e01b03166105ad565b60009392505050565b816001600160a01b0316836001600160a01b0316036110dd5760405162461bcd60e51b815260206004820152601960248201527822a9219b99189d1030b8383937bb32903a379031b0b63632b960391b60448201526064016104a5565b6001600160a01b03838116600081815260056020908152604080832094871680845294825291829020805460ff191686151590811790915591519182527f17307eab39ab6107e8899845ad3d59bd9653f200f220920489ca2b5937696c31910160405180910390a3505050565b611155848484610b3d565b61116184848484611664565b6108035760405162461bcd60e51b81526004016104a59061236d565b600061037261118a610ca4565b8360405161190160f01b6020820152602281018390526042810182905260009060620160405160208183030381529060405280519060200120905092915050565b60008060006111dc87878787611762565b915091506111e98161181c565b5095945050505050565b6001600160a01b0381166000908152600a602052604090208054600181018255905b50919050565b6060600061122883611961565b60010190506000816001600160401b0381111561124757611247612086565b6040519080825280601f01601f191660200182016040528015611271576020820181803683370190505b5090508181016020015b600019016f181899199a1a9b1b9c1cb0b131b232b360811b600a86061a8153600a850494508461127b57509392505050565b6000806112b983610fda565b6001600160a01b0316141592915050565b6001811115610803576001600160a01b03841615611310576001600160a01b0384166000908152600360205260408120805483929061130a908490612347565b90915550505b6001600160a01b03831615610803576001600160a01b0383166000908152600360205260408120805483929061134790849061235a565b909155505050505050565b61080384848484611a37565b600063ffffffff8211156113c35760405162461bcd60e51b815260206004820152602660248201527f53616665436173743a2076616c756520646f65736e27742066697420696e203360448201526532206269747360d01b60648201526084016104a5565b5090565b6000816000036113d957506000919050565b600060016113e684611a47565b901c6001901b905060018184816113ff576113ff6123bf565b048201901c90506001818481611417576114176123bf565b048201901c9050600181848161142f5761142f6123bf565b048201901c90506001818481611447576114476123bf565b048201901c9050600181848161145f5761145f6123bf565b048201901c90506001818481611477576114776123bf565b048201901c9050600181848161148f5761148f6123bf565b048201901c90506105ad818285816114a9576114a96123bf565b04611adb565b60005b818310156115055760006114c68484611af1565b60008781526020902090915063ffffffff86169082015463ffffffff1611156114f1578092506114ff565b6114fc81600161235a565b93505b506114b2565b509392505050565b6115178383611b0c565b6115246000848484611664565b6105465760405162461bcd60e51b81526004016104a59061236d565b600061037282610667565b816001600160a01b0316836001600160a01b03161415801561156d5750600081115b15610546576001600160a01b038316156115e9576001600160a01b038316600090815260086020526040812081906115a890611c1f85611c2b565b91509150846001600160a01b03166000805160206124be83398151915283836040516115de929190918252602082015260400190565b60405180910390a250505b6001600160a01b03821615610546576001600160a01b0382166000908152600860205260408120819061161f90611c6385611c2b565b91509150836001600160a01b03166000805160206124be8339815191528383604051611655929190918252602082015260400190565b60405180910390a25050505050565b60006001600160a01b0384163b1561175a57604051630a85bd0160e11b81526001600160a01b0385169063150b7a02906116a89033908990889088906004016123d5565b6020604051808303816000875af19250505080156116e3575060408051601f3d908101601f191682019092526116e091810190612412565b60015b611740573d808015611711576040519150601f19603f3d011682016040523d82523d6000602084013e611716565b606091505b5080516000036117385760405162461bcd60e51b81526004016104a59061236d565b805181602001fd5b6001600160e01b031916630a85bd0160e11b149050610b35565b506001610b35565b6000806fa2a8918ca85bafe22016d0b997e4df60600160ff1b0383111561178f5750600090506003611813565b6040805160008082526020820180845289905260ff881692820192909252606081018690526080810185905260019060a0016020604051602081039080840390855afa1580156117e3573d6000803e3d6000fd5b5050604051601f1901519150506001600160a01b03811661180c57600060019250925050611813565b9150600090505b94509492505050565b60008160048111156118305761183061242f565b036118385750565b600181600481111561184c5761184c61242f565b036118945760405162461bcd60e51b815260206004820152601860248201527745434453413a20696e76616c6964207369676e617475726560401b60448201526064016104a5565b60028160048111156118a8576118a861242f565b036118f55760405162461bcd60e51b815260206004820152601f60248201527f45434453413a20696e76616c6964207369676e6174757265206c656e6774680060448201526064016104a5565b60038160048111156119095761190961242f565b03610a485760405162461bcd60e51b815260206004820152602260248201527f45434453413a20696e76616c6964207369676e6174757265202773272076616c604482015261756560f01b60648201526084016104a5565b60008072184f03e93ff9f4daa797ed6e38ed64bf6a1f0160401b83106119a05772184f03e93ff9f4daa797ed6e38ed64bf6a1f0160401b830492506040015b6904ee2d6d415b85acef8160201b83106119ca576904ee2d6d415b85acef8160201b830492506020015b662386f26fc1000083106119e857662386f26fc10000830492506010015b6305f5e1008310611a00576305f5e100830492506008015b6127108310611a1457612710830492506004015b60648310611a26576064830492506002015b600a83106103725760010192915050565b611a42848483611c6f565b610803565b600080608083901c15611a5c57608092831c92015b604083901c15611a6e57604092831c92015b602083901c15611a8057602092831c92015b601083901c15611a9257601092831c92015b600883901c15611aa457600892831c92015b600483901c15611ab657600492831c92015b600283901c15611ac857600292831c92015b600183901c156103725760010192915050565b6000818310611aea57816105ad565b5090919050565b6000611b006002848418612445565b6105ad9084841661235a565b6001600160a01b038216611b625760405162461bcd60e51b815260206004820181905260248201527f4552433732313a206d696e7420746f20746865207a65726f206164647265737360448201526064016104a5565b611b6b816112ad565b15611b885760405162461bcd60e51b81526004016104a590612467565b611b966000838360016112ca565b611b9f816112ad565b15611bbc5760405162461bcd60e51b81526004016104a590612467565b6001600160a01b038216600081815260036020908152604080832080546001019055848352600290915280822080546001600160a01b03191684179055518392919060008051602061249e833981519152908290a46105eb600083836001611352565b60006105ad8284612347565b600080611c5685611c51611c3e88611047565b6001600160e01b0316868863ffffffff16565b611cc8565b915091505b935093915050565b60006105ad828461235a565b6001600160a01b038316611c8e57611c8b6009611c6383611c2b565b50505b6001600160a01b038216611cad57611caa6009611c1f83611c2b565b50505b610546611cb98461060a565b611cc28461060a565b8361154b565b600080611ce684611cd84361135e565b611ce186611cfc565b611d65565b6001600160e01b03918216969116945092505050565b60006001600160e01b038211156113c35760405162461bcd60e51b815260206004820152602760248201527f53616665436173743a2076616c756520646f65736e27742066697420696e20326044820152663234206269747360c81b60648201526084016104a5565b825460009081908015611ea5576000611d8387610eaa600185612347565b60408051808201909152905463ffffffff808216808452600160201b9092046001600160e01b031660208401529192509087161015611dfe5760405162461bcd60e51b8152602060048201526017602482015276436865636b706f696e743a20696e76616c6964206b657960481b60448201526064016104a5565b805163ffffffff808816911603611e465784611e1f88610eaa600186612347565b80546001600160e01b0392909216600160201b0263ffffffff909216919091179055611e95565b6040805180820190915263ffffffff80881682526001600160e01b0380881660208085019182528b54600181018d5560008d81529190912094519151909216600160201b029216919091179101555b602001519250839150611c5b9050565b50506040805180820190915263ffffffff80851682526001600160e01b0380851660208085019182528854600181018a5560008a815291822095519251909316600160201b029190931617920191909155905081611c5b565b6001600160e01b031981168114610a4857600080fd5b600060208284031215611f2657600080fd5b81356105ad81611efe565b60005b83811015611f4c578181015183820152602001611f34565b50506000910152565b60008151808452611f6d816020860160208601611f31565b601f01601f19169290920160200192915050565b6020815260006105ad6020830184611f55565b600060208284031215611fa657600080fd5b5035919050565b80356001600160a01b0381168114611fc457600080fd5b919050565b60008060408385031215611fdc57600080fd5b611fe583611fad565b946020939093013593505050565b60008060006060848603121561200857600080fd5b61201184611fad565b925061201f60208501611fad565b9150604084013590509250925092565b60006020828403121561204157600080fd5b6105ad82611fad565b6000806040838503121561205d57600080fd5b61206683611fad565b91506020830135801515811461207b57600080fd5b809150509250929050565b634e487b7160e01b600052604160045260246000fd5b600080600080608085870312156120b257600080fd5b6120bb85611fad565b93506120c960208601611fad565b92506040850135915060608501356001600160401b03808211156120ec57600080fd5b818701915087601f83011261210057600080fd5b81358181111561211257612112612086565b604051601f8201601f19908116603f0116810190838211818310171561213a5761213a612086565b816040528281528a602084870101111561215357600080fd5b82602086016020830137600060208483010152809550505050505092959194509250565b60008060008060008060c0878903121561219057600080fd5b61219987611fad565b95506020870135945060408701359350606087013560ff811681146121bd57600080fd5b9598949750929560808101359460a0909101359350915050565b600080604083850312156121ea57600080fd5b6121f383611fad565b915061220160208401611fad565b90509250929050565b600181811c9082168061221e57607f821691505b60208210810361121557634e487b7160e01b600052602260045260246000fd5b6020808252602d908201527f4552433732313a2063616c6c6572206973206e6f7420746f6b656e206f776e6560408201526c1c881bdc88185c1c1c9bdd9959609a1b606082015260800190565b602080825260189082015277115490cdcc8c4e881a5b9d985b1a59081d1bdad95b88125160421b604082015260600190565b600083516122cf818460208801611f31565b8351908301906122e3818360208801611f31565b01949350505050565b60208082526025908201527f4552433732313a207472616e736665722066726f6d20696e636f72726563742060408201526437bbb732b960d91b606082015260800190565b634e487b7160e01b600052601160045260246000fd5b8181038181111561037257610372612331565b8082018082111561037257610372612331565b60208082526032908201527f4552433732313a207472616e7366657220746f206e6f6e20455243373231526560408201527131b2b4bb32b91034b6b83632b6b2b73a32b960711b606082015260800190565b634e487b7160e01b600052601260045260246000fd5b6001600160a01b038581168252841660208201526040810183905260806060820181905260009061240890830184611f55565b9695505050505050565b60006020828403121561242457600080fd5b81516105ad81611efe565b634e487b7160e01b600052602160045260246000fd5b60008261246257634e487b7160e01b600052601260045260246000fd5b500490565b6020808252601c908201527b115490cdcc8c4e881d1bdad95b88185b1c9958591e481b5a5b9d195960221b60408201526060019056feddf252ad1be2c89b69c2b068fc378daa952ba7f163c4a11628f55a4df523b3efdec2bacdd2f05b59de34da9b523dff8be42e5e38e818c82fdb0bae774387a724a26469706673582212204a56e886f1e4cc5e05a0bc51ca3a548d093f0c5f684ad3b7ae6f75bc899f098664736f6c63430008110033",
  "linkReferences": {},
  "deployedLinkReferences": {}
}